S011000049525F4932435F4C61622E733337BD
S113000000000420C1010000ED010000ED0100002A
S1130010ED010000ED010000ED010000ED01000024
S1130020ED010000ED010000ED010000ED01000014
S1130030ED010000EC010000ED010000ED01000005
S1130040ED010000ED010000ED010000ED010000F4
S1130050ED010000ED010000ED010000ED010000E4
S1130060ED010000ED010000ED010000ED010000D4
S1130070ED010000ED010000ED010000ED010000C4
S1130080ED01000041260000ED010000ED0100003B
S1130090ED010000ED010000ED010000ED010000A4
S11300A0ED010000ED010000ED010000E129000078
S11300B0ED010000ED010000ED010000ED01000084
S11300C0ED010000ED010000ED010000ED01000074
S11300D0ED010000ED010000ED010000ED01000064
S11300E0ED010000ED010000ED010000ED01000054
S11300F0ED010000ED010000ED010000ED01000044
S1130100ED010000ED010000ED01000010B5054C0B
S1130110237833B9044B13B10448AFF300800123AF
S1130120237010BD9000002000000000683800001B
S113013008B5034B1BB103490348AFF3008008BD66
S1130140000000009400002068380000154B002BCC
S113015008BF134B9D46A3F5803A00218B460F46FA
S11301601348144A121A03F087FA0F4B002B00D0DD
S113017098470E4B002B00D0984700200021040024
S11301800D000D48002802D00C48AFF3008003F0A6
S11301904FFA2000290002F07FFD03F035FA00BF7A
S11301A0000008000000042000000000000000001F
S11301B09000002008010020000000000000000062
S11301C0064880470649074A074B9A42BEBF51F882
S11301D0040B42F8040BF8E7FFF7B8FF81020000B4
S11301E0743800000000002090000020FEE700BFEB
S11301F000487047005A6202114BD3F8943003F060
S11302000703023B032B18D8DFE803F00D02141098
S11302104FF400400A4BD3F80031C3F304230133F5
S1130220B0FBF3F07047074B1868F3E7064B186808
S11302304008EFE7054B1868ECE7034B1868E9E75B
S113024000400E4004000020080000200C000020A4
S113025008B5FFF7D1FF054B054AD3F80831C3F3BE
S113026008230133B0FBF3F0106008BD00400E40DA
S113027000000020014B1868704700BF04000020F4
S1130280044B054A9A60D3F8882042F47002C3F8FC
S11302908820704700ED00E0000000004FF40040AB
S11302A0704700BF4FF47A70704700BF014B186865
S11302B0704700BF0C000020FEE700BF224B9842AD
S11302C03AD01AD9214B98423AD00CD8204B9842B4
S11302D025D003F5371303F5D86398422AD11D4B73
S11302E0D3F8A00070471C4B984214D01B4B984283
S11302F020D1184BD3F8B0007047194B984215D051
S113030011D9184B984211D0174B984212D1114B66
S1130310D3F88C0070470F4BD3F8AC0070470D4BEB
S1130320D3F89C007047114B984203D1094BD3F882
S11303308000704700207047064BD3F89800704740
S1130340044BD3F8A8007047405DC60080BA8C0106
S11303500024F400B081E00F0048E80180D5430296
S113036080841E0000093D00C0CF6A0040420F0097
S113037010B5C9B20024134B134A5B688C42234660
S113038008D00133052B02F1080213D012F8084CEF
S11303908C42F6D152F80C4C8442F2D30B4A02EB55
S11303A0C3035B791A0607494B6823F04073134370
S11303B04B6010BD40F653610548FFF77DFF4FF0D9
S11303C04072F0E700000E40D0360000C436000052
S11303D0B036000038B5074C41F67133256C236400
S11303E0FFF706FF0021FFF7C3FF0DB100232364CD
S11303F038BD00BF00000E4038B5054C41F67133DE
S1130400256C2364FFF7B4FF0DB10023236438BDCA
S113041000000E4030B4C0F30323013B092B43D842
S1130420DFE803F00D1542422F3D1D423705214CF4
S1130430C0F304302044800030BC016070471E4C7F
S1130440C0F304302044800030BC016070471B4C72
S1130450C0F304302044800030BC01607047184C65
S1130460C0F304301025174BD3F84421D207E1D44C
S1130470D3F840212A42FBD12044800030BC0160E3
S11304807047114CC0F304302044800030BC01603C
S11304907047C0F304300D4C4FF48035E3E7C0F3EC
S11304A004300B4C0125DEE741F2F231094830BC3F
S11304B0FFF702BF800AF2100000F2100006F210EB
S11304C04007F21000400E408005F2108007F21041
S11304D00007F210B036000008B5C0F30313013B67
S11304E0092B53D8DFE803F00E20261452521A3099
S11304F03F053D4B984270D13C4BD3F8300100F09E
S1130500030008BD394BD3F80001C0F3042008BD33
S1130510364BD3F80C01C0F3082008BD334BD3F895
S11305200801C0F3082008BD304BD3F81401C0F310
S1130530042008BD2D4BD3F80001C0F30060431C18
S113054001209840013808BD294B98423CD0294BE2
S1130550984229D1254BD3F820310120C3F301134C
S11305609840013808BD244B984224D003F5B013B9
S113057003F58053984210D11C4BD3F82801C0F3E3
S11305800120031D01209840013808BD41F2EE51BD
S11305901A48FFF791FE002008BD41F2BA511748EE
S11305A0FFF78AFE002008BD41F296511348FFF779
S11305B083FE002008BD0D4BD3F828310120C3F37E
S11305C001139840013808BD084BD3F820310120AD
S11305D003F00F039840013808BD41F2C9510748A0
S11305E0FFF76AFE002008BDA009140000400E4079
S11305F08006160080162E0090171A00B0360000F0
S113060008B500F00F00013807284AD8DFE800F0E9
S1130610121F2D49394149042F4BD3F85C3103F0A3
S11306203003202B4AD0302B52D0102B0CBF072084
S1130630012008BD284BD3F8943003F00703023B94
S1130640052B43D8DFE803F03A383640423E224BCC
S1130650D3F8800000F007000228EAD0042827D04D
S113066001280CBF0320012008BD1B4BD3F88430A4
S113067003F00703013B032B2CD8DFE803F01D1B19
S11306802119154BD3F8880000F007000228E5D1A2
S113069008BD114B1B6F13F0010F14BF0920072075
S11306A008BD41F642110D48FFF706FE002008BDC3
S11306B00A2008BD022008BD032008BD042008BD8F
S11306C0062008BD0C2008BD0B2008BD052008BD70
S11306D0082008BD012008BD00400E40B0360000CF
S11306E038B52E4B984205460AD02D4B984207D078
S11306F02C4B984204D040F653712B48FFF7DCFD95
S11307002846FFF77DFF254B9D42044625D0244B08
S11307109D421CD0234B9D4213D040F68271224847
S1130720FFF7CAFD042C04D8DFE804F009332F21B5
S11307301D0040F6D4711C48FFF7BEFD002420467E
S113074038BD1A4BD3F8804004F00704EAE7174B8E
S1130750D3F8884004F00704E4E7144BD3F884404A
S113076004F00704DEE7BDE83840FFF79BBDFFF760
S113077043FD0E4BD3F80041C4F30064631C012411
S11307809C40B0FBF4F4204638BDBDE83840FFF788
S11307908DBDBDE83840FFF781BD00BF03002000D8
S11307A00500240002001E00B036000000400E4088
S11307B038B500F47813B3F5B01F00F097801AD958
S11307C0B3F5101F00F09F804CD9B3F5401F2AD019
S11307D07FD9B3F5481F00F09B80B3F5781F4AD149
S11307E00546FFF709FD04462846FFF775FE01306C
S11307F0B4FBF0F038BDB3F5202F58D04FD9B3F582
S1130800602F1ED057D9B3F5801F28D0B3F5A01F91
S113081031D16848FFF764FF674BD3F8303103F0F8
S11308200303D84038BD6548FFF75AFF624BD3F83D
S11308302831C3F301231A1D01239340B0FBF3F0C5
S113084038BD5F48FFF7DCFE072808D009282ED002
S113085040F615515B48FFF72FFD002038BD5A4B79
S1130860186838BDB3F5F01F71D0B3F5001F69D017
S1130870B3F5D01F06D041F222515248FFF71CFDB8
S1130880002038BD4D48FFF72BFF4B4BD3F82821F0
S11308900123C2F301129340B0FBF3F038BDB3F56A
S11308A0003F64D0B3F5802F56D0002BE3D1BDE8D0
S11308B03840FFF7A1BCB3F5402FDCD1FFF79CFC17
S11308C03D4BD3F81431C3F304230133B0FBF3F0ED
S11308D038BDB3F5381FCED13C48FFF701FF364B86
S11308E0D3F82031C3F30113D84038BD3748FFF79C
S11308F0F7FE314BD3F82021012302F00F0293407D
S1130900B0FBF3F038BD2B48BDE83840FFF7E8BE34
S11309102F48FFF775FE0138072843D801A353F881
S113092020F000BF85090000A5090000A50900000A
S11309309D090000A5090000A50900005F0800004A
S1130940890900001D48BDE83840FFF7C9BE1F48AB
S1130950BDE83840FFF7C4BEFFF74EFC164BD3F892
S11309600C31C3F308230133B0FBF3F038BDFFF7B8
S113097043FC114BD3F80831C3F308230133B0FB14
S1130980F3F038BD002038BDFFF736FC0A4BD3F82E
S11309900031C3F3042303FB000038BDBDE8384035
S11309A0FFF768BC40F64C510648FFF785FC002071
S11309B038BD00BF0500240000400E4003002000A5
S11309C006000E00B03600001000002002001E00D9
S11309D0B80032002DE9F8430546FFF76FFC431ECB
S11309E00333064671D8DFF8CC811120D8F80070A3
S11309F0C8F80050FFF704FE052800F08180614B21
S1130A001C68002CFCD1721C74D05F4B9D426CD0CE
S1130A105E4B9D425FD05E4B9D4220D01120FFF77C
S1130A20EFFD052824D15B4B9D425BD95A49012037
S1130A308D428CBF4FF000714FF08071574B584A74
S1130A401860D2F8003123F080730B43BD42C2F822
S1130A5000310FD90121284600F0A4FE0AE026F057
S1130A60C06646F080661120FFF7CAFD052839D01C
S1130A70BD42EFD84A4B11201E61FFF7C1FD052886
S1130A8041D0FFF7B9FB434B98421CD9424B012498
S1130A9098428CBF4FF000734FF080733F49404A37
S1130AA00C60D2F8000120F080701843BD42C2F8F7
S1130AB0000103D80121002000F074FE1120BDE8DC
S1130AC0F843FFF79DBD0023E8E741F6D3513548CD
S1130AD0FFF7F2FB87E71120FFF792FD052826F0C8
S1130AE0C066C5D100200146A8E726F0C06646F0DE
S1130AF00076B8E741F6E4512A48FFF7DDFB84E7C6
S1130B00FFF768FC7BE7FFF7A3FB8542064632D379
S1130B10D8F80030B34226D39D4219D1224B1B682A
S1130B205B061BD5214BDFF890805968D8F84090BC
S1130B3041F671333046C1F30141C8F84030FFF744
S1130B4017FCB9F1000F9CD00023C8F8403098E797
S1130B5041F612611348FFF7AFFBDFE7144A13684D
S1130B60002BFCD1DEE741F611610E48FFF7A4FB30
S1130B70D8F80030D0E741F610610A48FFF79CFB33
S1130B80C6E700BF6028C84380841E0000093D00FA
S1130B9040420F000048E8010090D0034000C843E1
S1130BA000400E40B03600003C300E4000300E4095
S1130BB0C800C6430800002000000E4010B50138EC
S1130BC00C4603284ED8DFE800F0203211027F29BA
S1130BD061D8344A04F07F041368002BFCD1324AF4
S1130BE0936923F07F031C43946110BD7F294CD883
S1130BF02E4A04F07F041368002BFCD12A4A13699F
S1130C0023F07F031C43146110BDB1F5007F36D27D
S1130C10274AC4F308041368002BFCD1224A136A40
S1130C2023F4FF7323F001032343136210BD1E4B0F
S1130C30D3F890305B071CD41B491E4B4A6A22F040
S1130C40300242F010024A62086BC4F3C31203324A
S1130C5003400F2A44EA030428BF0F2244EA027423
S1130C600C6310BD42F24A111348BDE81040FFF76F
S1130C7023BB42F230111048FFF71EFBDCE742F2BF
S1130C80F9010D48FFF718FBC2E742F206110A48C2
S1130C90FFF712FBACE742F221110748FFF70CFB08
S1130CA097E700BF6428C84300400E406028C8434B
S1130CB06828C84300F8FF0FB036000010B50228BA
S1130CC00C4604D042F262111348FFF7F5FA134BB5
S1130CD05B6A13F0300F0BD0202C19D0302C07D0C6
S1130CE034B142F27D110C48FFF7E6FA0C4A01E0F8
S1130CF04FF440020949D1F8903032EA0303FAD1A3
S1130D0053024ABFD1F8A0000120C0F3802010BDD7
S1130D104FF40002EEE700BFB036000000400E4082
S1130D20FF33E107F0B583B004460E4604287FD8AC
S1130D30DFE800F003595F7953004FF400754FF476
S1130D40807708234FF0090C96B9012098404A494E
S1130D500D66D1F890300342FBD13AB101224649E5
S1130D6002FA0CF2D1F890301342FBD103B0F0BD7B
S1130D7042491944890000263F4B1F660B68002B2B
S1130D80FCD0002AF2D03D4D6544AD002B68002B09
S1130D90FCD0022CEAD1002EE8D0374A516A11F077
S1130DA0010165D04FF480632021C2F8A8302046A9
S1130DB05166FFF783FF304CD4F89C600122002178
S1130DC00220FFF7AFFFC6F30A010220FFF7F6FE89
S1130DD027662B68002BFCD0C8E7202510270423A6
S1130DE04FF0050CB0E78025402706234FF0070C91
S1130DF0AAE7002937D0204B5B6A13F0300F1FD1CC
S1130E001F4BDB6B580526D51B4B596AC9071DD5EB
S1130E10586A1C4920F0300040F010005862042742
S1130E204FF0030CA8E70127BC46022500238BE7FB
S1130E30154842F2470103B0BDE8F040FFF73CBA61
S1130E40104904274FF0030C002695E70D490427A9
S1130E504FF0030C90E742F256010B480192FFF762
S1130E602BFA019AD0E7042008254FF0030C6EE713
S1130E702046FFF723FF9EE700400E408004F21057
S1130E8000300E400812C843B0360000F8B51128EF
S1130E900C460AD000F00F000138072863D8DFE8B9
S1130EA000F0093F43621B286231042900F092805C
S1130EB005293BD00025023C0A2C00F22A81DFE8F8
S1130EC014F0FB00FE000801150128012801280187
S1130ED028010101B400F90006299A4D57D0013CBC
S1130EE0092C47D8DFE804F03D362F4646584646DD
S1130EF0462C072900F01781092972D1924B01224F
S1130F001A67F8BD4C1E072C00F2FC80DFE814F0D1
S1130F108B00FA00FA008400FA00FA007D007300E6
S1130F2006292ED0894DDAE7894DD8E7894A8A4BBC
S1130F3015689D42BED90021284600F033FCBAE76B
S1130F4004232B60F8BD012211461046FFF7EAFE88
S1130F500123F6E7012211460020FFF7E3FE0223F6
S1130F60EFE70023EDE741F641417C48BDE8F84056
S1130F70FFF7A2B941F682217848BDE8F840FFF7AF
S1130F809BB941F647217548704DFFF795F97348B1
S1130F9041F65721FFF790F9FFF72EF9704B98426D
S1130FA026D9704B012498428CBF4FF000734FF048
S1130FB080736D49644A0C60D2F8000101F5AE51AA
S1130FC0083120F0807018430124C2F80001032383
S1130FD00C60B6E7FFF74EF9054600283FF46AAF08
S1130FE0A9E741F60C315D48BDE8F840FFF764B964
S1130FF000231C46DDE73021534AD2F85C3123F04C
S113100030030B43C2F85C31F8BD012211460420C1
S1131010FFF788FE1021EFE7012211460220FFF7B7
S113102081FE2021E8E70021E6E7032005240122D0
S11310301146FFF777FEFFF7CDF91DB14B4B1B6847
S11310405A0679D5404B5C67FFF702F90646FFF76D
S1131050D3F8434B984263D9424B012498428CBF46
S11310604FF000734FF080733F49374A0C60D2F859
S113107000013E4920F080701843C2F800010B685B
S11310805B0654D53A4B3B4C5968276C41F6713397
S11310903046C1F301412364FFF76AF90FB100231D
S11310A02364002D7FF42DAF28460121BDE8F840CC
S11310B000F078BB0724BEE700200424B7E7012032
S11310C00324B4E741F603212448BDE8F840FFF7C0
S11310D0F3B8254B1C4A01211960D2F800310220D3
S11310E043F08073C2F800310446A0E71E4B164A51
S11310F001241C60D2F8003143F08073C2F800313F
S1131100032094E741F66A311448BDE8F840FFF73C
S1131110D3B841F608211148BDE8F840FFF7CCB830
S113112000231C46A0E7084B00221A67F8BD124AA8
S11311301368002BFCD1A5E70F4A1368002BFCD1E0
S113114080E700BF88400E4000400E4080400E40C3
S113115084400E4008000020002D3101B03600000C
S11311600048E8010090D0034000C8433C300E40E2
S113117000300E4000000E40C800C64338B5044697
S11311801120FFF73DFA04284DD00122002102204E
S1131190FFF7C8FD637813B9A378002B36D041F666
S11311A02F712448FFF788F8217C012934D0224A82
S11311B02248536A257823F00103022908BF43F02B
S11311C0010353620560A388617AE58841EAC3217B
S11311D0D162136B207AA17A03F07F630B43C11CA5
S11311E043EAC5230F2943EAC01328BF0F2143EA6A
S11311F001731363A37B657BE07B217B1B0143EAC3
S11312000533034343EA0143536338BDE378002BBA
S1131210C5D1217C0129CAD141F634710548FFF7B3
S11312204BF8217CC3E741F6F1610248FFF744F82B
S1131230ABE700BFB036000000400E40A004C84336
S1131240EFF3108072B6704700B962B6704700BF02
S113125038B542EA032340F20112934205460C4694
S113126060D0B3F5817F14D340F20122934250D071
S113127030D9B3F5407F24D040F2013293423ED1BD
S11312802D4BD3F878311A0EC3F307432B60226039
S113129038BD012B2AD00BD3B3F5807F2FD1264B39
S11312A0D3F86C311A0EC3F307432B60226038BDA8
S11312B0214BD3F86C31C3F30722DBB22B602260DD
S11312C038BD1D4BD3F870311A0EC3F307432B609E
S11312D0226038BDB3F5007F11D1174BD3F87031BC
S11312E0C3F30722DBB22B60226038BD124BD3F864
S11312F07431C3F30722DBB22B60226038BD40F6A1
S113130004110E48FEF7D8FF002213462B6022601A
S113131038BD094BD3F87831C3F30722DBB22B6015
S1131320226038BD044BD3F874311A0EC3F307435B
S11313302B60226038BD00BFB081E00FEC360000A6
S1131340044B1B69C3F30443082B02D1024B034A29
S11313501A60704700400E4008000020C0EA2101D6
S113136010B51C4B02280C46D3F8803120D003283A
S11313701CD0012814BFDBB2C3F307231B0323F4DF
S1131380704244B9BAB91449CA6E22F47042134384
S1131390CB66012010BDAAB90F49D1F8EC2022F484
S11313A070421343C1F8EC30012010BD1B0EE5E779
S11313B0C3F30743E2E740F693010848FEF77CFFD6
S11313C0204610BD40F69F010448FEF775FF00203B
S11313D010BD00BFB081E00F00300E40EC360000BD
S11313E00E4B1A6852060FD41B685B0611D50C4BC2
S11313F019685A68C1F30121C2F3014291421A6883
S113140003D822F010021A60704742F010021A60EA
S11314107047044A1368002BFCD1E8E73C300E40C7
S113142000300E40C800C64308B50F4A0F4BD2F82F
S113143090201A601120FFF7E3F80D4B0D4A1B684A
S113144010705B060AD50C4B0C485B6806490C4AC5
S1131450C3F3014303700B69136008BD094A1368A1
S1131460002BFCD1EFE700BF00400E40AC00002091
S11314703C300E40B600002000300E40BD0000207D
S1131480B8000020C800C64370B52E4B1B685B062D
S113149007D42D4B2D491A781023C2F10202934030
S11314A00B612B4B2B4DD3F88041264945F60E0298
S11314B0C3F88021286840F2551202401A660B686E
S11314C05E0604F0010426D5204B1B68D80617D508
S11314D01F4AD2F84031D901FBD41F4E1F4B31783B
S11314E01B68136105291BD01120FFF7CFFC2B6863
S11314F0DB070CD51CB1164B0022C3F8802170BD4C
S1131500154E31780529EFD12B68DB07F2D4104B47
S113151002221A66EEE7124A1368002BFCD1D3E7C5
S1131520084B104A1B6810685A0606D5074B5968C1
S1131530C1F30141FEF760FFE3E7094A1368002B9A
S1131540FCD1F3E73C300E40BD00002000300E40DB
S113155000400E40AC000020B6000020B80000207F
S1131560C800C64308000020704700BF704700BF92
S113157010B5044678BBFFF733FF184A136943F0EC
S113158004031361FFF7F0FF154B1B68DA061BD445
S113159030BFFFF7EBFF7CB9114B1B68DB0608D4A7
S11315A0104A136823F000431360BDE81040FEF7AF
S11315B04FBEFFF7C5FEF3E7FFF766FF094A13685E
S11315C023F00043136010BDFFF73AFE02F06CF8FD
S11315D0FFF73AFEDDE7FFF727FFCCE700ED00E079
S11315E000300E404C310E4010B5044600283ED168
S11315F0FFF7F6FE1F4BD3F880214FF4207145F618
S11316000E00C3F880011966D10744BF0022C3F855
S11316108021194A136943F004031361FFF7A4FFFF
S1131620164B1B68DA061BD430BFFFF79FFF7CB94B
S1131630124B1B68DB0608D4114A136823F00043DD
S11316401360BDE81040FEF703BEFFF779FEF3E731
S1131650FFF71AFF0A4A136823F00043136010BD12
S1131660FFF7EEFD02F020F8FFF7EEFDDDE7FFF7F0
S1131670DBFEBDE700400E4000ED00E000300E4010
S11316804C310E402DE9F843294B1A68550632D4E3
S11316901B685C0631D5274E7368C3F30143984237
S11316A029D0254B0446D3F800810D46FEF7A4FD4E
S11316B0C4F102071023022C814603FA07F70CD069
S11316C037611DB11A4B1B685A0625D59CB92146B2
S11316D04846BDE8F843FEF78FBEC8F30428174B0D
S11316E008FB000898451CD802214846FEF784FEF2
S11316F0104B1F6165B9BDE8F883114A1368002BCC
S1131700FCD10C4E7368C3F301439842C9D1F2E78C
S1131710074B1B685B06EED4094A1368002BFCD107
S1131720D4E740F2E1510748FEF7C6FDDCE700BF0D
S11317303C300E4000300E4000400E40002D310180
S1131740C800C643EC36000040B1134B1B7813B1FC
S1131750124B98421BD90020FFF794BF10B582B0FA
S11317600F4B0191D3F80041FEF746FD0A4B019956
S11317701B78C4F3042404FB000013B1074B984204
S113178008D9002002B0BDE81040FFF77BBF02205B
S1131790FFF778BF0220F5E7BC000020002D3101DF
S11317A000400E40034B1B685B0601D4FFF7CCBF1F
S11317B0704700BF3C300E40094942780B6823F45F
S11317C0407343EA0223022A0B6000D07047054BA2
S11317D05B6A9B00FAD540F21D610348FEF76CBDBD
S11317E000300E4000400E40EC36000010B4244A95
S11317F04AF6E853546B5363936FDB07FCD4136CC2
S113180013F0030322D01F4A0121834211601AD02E
S1131810032B02D1431E012B1FD9194A936FDB07F7
S1131820FCD4136C164923F00303034313648B6F36
S113183013F00103FBD10030124A18BF0120012C20
S1131840106000D14B635DF8044B70470028E1D170
S11318500C4B5DF8044B18607047094A4FF40023A1
S1131860D362936FD907FCD4136C054923F00303A7
S113187043F0010313644B6A1A03FCD5CDE700BFA0
S113188000300E40B40AC6432DE9F04F89B0044637
S1131890A0F5E1600025B0F5966F0191CDE9025500
S11318A0CDE90455CDE9065500F284805D4BB4F5CD
S11318B0E16F9346D3F868318CBF4FF001084FF0C5
S11318C0000863D1C3F30722DBB2079204934FF4F9
S11318D016794FF4966A544FFD6CC5F3017505A94A
S11318E002A82B464246FFF7B3FCD7F8EC60C6F3D8
S11318F001264246334606A903A8FFF7A9FC049A29
S11319000798A4EB0A01831A01FB03F3B3FBF9F371
S1131910D3182CBF01220022984241D3002A3FD180
S11319200698DDF80C80A0EB080201FB02F2B2FB82
S1131930F9F218EB02082CBF0122002240452FD3F4
S113194072BB059A0298A2EB000C01FB0CF1B1FBEF
S1131950F9F910EB09092CBF012100214A451FD3D5
S1131960F1B9BBF1000F0DD0FA6D22F4FE4222F062
S1131970020242EA0323B4F5E16F2B4A18BF43F095
S11319800203D365019BF3B901250FE01A0EC3F3DB
S11319900743079204934FF496694FF4E16A9AE778
S11319A040F68D212148FEF787FC0025284609B022
S11319B0BDE8F08F40F63F211C48FEF77DFC284629
S11319C009B0BDE8F08F28460021FFF7C9FC0546A1
S11319D0E0B130460121FFF7C3FC0546E0B1124AED
S11319E0536EC14538BFC14623F4FF73B9F1E70F05
S11319F023F0010328BF4FF0E709B4F5E16F18BFE6
S1131A0043F0010343EA49035366CFE740F69C21C0
S1131A100648FEF751FCC9E740F6A4210348FEF747
S1131A204BFCC3E7B081E00F00300E40EC36000001
S1131A3038B53B4B1A6FD96CCC0702F007020BD5B3
S1131A40012A55D9132850D9143813288CBF4FF4C0
S1131A507F414FF4EE410CE0D96CCD073FD4012A0D
S1131A6053D9DB6C2F4840F6E221FEF725FC6FF0DA
S1131A70FF012B482C4AC36C2C4C23F47F430B43AB
S1131A80C364C16C1388C26CC1F3032101312833D0
S1131A9001EB810503EB5303B3FBF5F3013B072B88
S1131AA022F0EE6228BF072342F4801242EA036365
S1131AB0B4F90020C364002A10DB036D4C082832FB
S1131AC004EB410102EB520223F07004B2FBF1F388
S1131AD0072B28BF072344EA0313036538BDDB6CD7
S1131AE0DC07BFD5012ABDD808E04FF44C51C0E74C
S1131AF0DA6CD20709D5DB6CDB07B3D527288CBF9A
S1131B004FF47F414FF4EE41B3E70928EDD90A3889
S1131B1009288CBF4FF47F414FF4EE41A9E700BF81
S1131B2000300E40EC360000B2000020B40000206B
S1131B3010B50B4B1B68044633B9012804D940F691
S1131B4001310848FEF7B8FB074B084A186F20F02C
S1131B50070020431867BDE810401088FFF768BFEE
S1131B608009C643EC36000000300E40B00000206F
S1131B7070B56B4B02229A639B6B03F00F03934285
S1131B8022D10389C82B044600F28780A2889A4296
S1131B9000F28D80B4F90C30C82B00F39280637886
S1131BA0012B6DD0022B00F0B180E38842F2107259
S1131BB0934200F2A4804A2B0ED9B3F5FA7F80F049
S1131BC08A804FF0805008E040F6A6115548002561
S1131BD0FEF772FB284670BD00205149B4F90C6031
S1131BE0CB6C514D514A23F0405323F00103002E96
S1131BF0A8BF43F001030343CB64D1F8EC30A088C1
S1131C0043F44073C1F8EC30CB6E288043F080730A
S1131C10CB66106800282FD1FFF78AFF444B454953
S1131C202589B4F90C20A0881A800D80FFF700FFE5
S1131C30A37B002B5FD0012B2BD040F64401394805
S1131C40FEF73AFB012211466088FFF71DFE0546A8
S1131C50002849D0324A6078D36B43F48063D3635D
S1131C60FFF7C4FDA37A344AA3F12003B3FA83F344
S1131C705B091360284670BD0420FFF759FFCDE7C8
S1131C80A388C82B91D940F6B6112648FEF714FB59
S1131C908BE7234B294A9A65D4E74FF41B6121480B
S1131CA0FEF70AFB2389A2889A427FF673AF40F6B7
S1131CB0B1111C48FEF700FBB4F90C30C82B7FF7B8
S1131CC06EAF40F6B2111748FEF7F6FA6378012BAF
S1131CD07FF468AFD4E740F6C31083428CBF4FF063
S1131CE040504FF0005078E740F6FA110D48FEF7E7
S1131CF0E3FA284670BD0A4B114A9A65A2E740F6FA
S1131D00C3110848FEF7D8FAE38854E7A3880A2BDE
S1131D107FF64BAF40F6BB110248FEF7CDFA44E71D
S1131D2000300E40EC360000B00000208009C643AD
S1131D30B4000020B20000209407C643372110B736
S1131D407740205738B5032804460D461BD904288C
S1131D5005D0052817D0A0F10803022B13D982213E
S1131D600B48FEF7A9FA04EB4400000100F180409F
S1131D7000F5204000F1806300F1C0604FF00112D3
S1131D801A60056038BD35F00113E8D1EBE700BFF8
S1131D90003700002DE9F0410D46174698460446E9
S1131DA0E8B1012800F0B480022800F0F480032890
S1131DB000F0EE80042800F0A580052800F02181C1
S1131DC0831F012B40F29E80082800F029810928F6
S1131DD000F031810A2840F09580072301E040F2A9
S1131DE0FF332B41DE0740F18D80002F3CD166008C
S1131DF0072D25D833191B0103F1804303F5204334
S1131E00A9005A680F20884022EA000207FA01F16B
S1131E100A435A6097B9B8F1000F57D1002C7AD110
S1131E2040F2FF332B41DB0740F1B8808D4B344443
S1131E3024012344012202FA05F51D60BDE8F08166
S1131E403119090101F1804101F5204105F180407A
S1131E5008388B6880000F22824023EA020307FAC5
S1131E6000F018438860D5E7B8F1000F10D0002CBB
S1131E7068D140F2FF332B41D80740F195806600CA
S1131E80794B3219120113440122AA401A60AFE7B8
S1131E90002C6CD0012C00F0AB80022C00F0B4803C
S1131EA0032C00F09680042C00F08480052C00F0B4
S1131EB0B980A31F012B7DD9082C00F0C380092C05
S1131EC000F0C7800A2C75D1072352E0002C57D0AC
S1131ED0012C00F09080022C00F09C80032C7ED01A
S1131EE0042C6DD0052C00F0A380A31F012B67D90F
S1131EF0082C00F0A580092C00F0AE800A2C5FD1DC
S1131F0007233FE040F21B115848FEF7D5F96CE770
S1131F104FF6C07365E7012C64D0022C6ED0032CFD
S1131F2054D0042C3AD0052C77D0A31F012B35D9DB
S1131F30082C00F08380092C00F088800A2C2DD115
S1131F4007236FE7012C50D0022C60D0032C43D020
S1131F50042C29D0052C68D0A31F012B24D9082CCC
S1131F6072D0092C7BD00A2C1ED1072383E740F2C0
S1131F70FF332B41D9071DD566003219394B81E750
S1131F8040F2FF332B41DA071AD53444364B4FE77E
S1131F904FF47F4325E740F6FF7322E74FF4777150
S1131FA03348FEF789F941E740F20B413048FEF728
S1131FB083F964E74FF477712D48FEF77DF9DBE789
S1131FC040F20B412A48FEF777F9DEE74FF47F43EE
S1131FD028E74FF47F43CCE74FF47F434BE74FF4BC
S1131FE07F43CFE74FF6C0731CE74FF6C07342E759
S1131FF04FF6C073BDE74FF6C073C3E740F6FF73F7
S113200010E74FF6FF73ECE640F6FF73B1E740F6D6
S1132010FF7330E740F6FF73B4E74FF6FF7301E751
S11320200F23DEE64FF6FF73A3E74FF6FF7322E7B5
S11320304FF6FF73A6E74FF44043D2E60F23F1E6D1
S11320400F239FE70F2394E70F2314E74FF4404334
S1132050E8E64FF440438CE74FF4404392E74FF4F3
S1132060404308E70CA000440CA0004600370000E1
S113207014370000002A54D0F8B50F46016805460D
S113208003F0030621F4407100F1C063144600F12B
S11320908062296030024FF440711160186057B9B2
S11320A02F4B9D4256D02F4B9D4243D04FF49771F6
S11320B02D48FEF701F92B689A071ED5032E35D15A
S11320C040F263112848FEF7F7F8284B9B5D04FBA8
S11320D003F3FBB16FEAC4041C443C44B4FBF3F4C3
S11320E0013C2CD4B4F5007F2ED22B689B0702D57B
S11320F0002C08BF01242C61F8BD032EE0D01C4B3A
S113210053F826309F42DBD9184B9B5D04FB03F345
S1132110002BDFD14FF4BA711348BDE8F840FEF745
S1132120CBB84FF48A711048FEF7C6B8114B53F878
S11321302630E7E71048FEF73BFB0746BBE74FF4C2
S1132140BD710948FEF7B8F840F27B110648FEF766
S1132150B3F8CAE70948FEF72BFB0746ABE700BF15
S113216000C0004000C4004090370000A4370000C5
S113217084370000783700000092040000820400D5
S113218038B5094B984204460D4608D003F58063E0
S1132190984204D04FF4CA710448FEF78DF804F154
S11321A004746401256038BD00C00040903700000D
S11321B070B5124B984204460D4608D003F580636F
S11321C0984204D040F2A9110D48FEF775F86978D9
S11321D00C482B7B620102F18442002681F001014C
S11321E02664E0635160D5E901122046FFF742FFFF
S11321F029782046BDE87040FFF7C2BF00C0004008
S113220090370000FFFF070038B50A4B9842044698
S11322100D4604D04FF489710748FEF74DF8636BFF
S11322209B07FCD415B90223636038BD01236360A6
S113223038BD00BF00600440A837000070B5234BD0
S1132240984205460C4604D040F26F112048FEF730
S113225033F8217811B9AB68DE0728D46278A07806
S1132260E368002A14BF4FF48052002228BB4BBB02
S1132270E3780BB142F4807223790BB142F040024F
S113228063790BB142F08002E379A679207A1B01CD
S113229043EA8603034313432B6039B1AB68DA077F
S11322A004D46B6B9B07FCD401236B6070BD6B6B18
S11322B09807FCD402236B60D0E742F40072002B31
S11322C0D6D001E042F400722B61D1E700600440F3
S11322D0A837000070B58CB000F0C6FB1A4D00F0B2
S11322E06DFC00F099F800F0B7F8184B0493184A05
S11322F0059200234FF4E0510222012428468DF870
S113230000308DF801308DF80C308DF80D308DF8DB
S113231018308DF820300291042369461C26099256
S11323200B9301968DF82840079400F0C9FA2146D2
S1132330284600F0A1FA2146284600F09DFA00F054
S1132340BDFB0CB070BD00BF00600440CDCC2C4080
S11323509A99193E08B500F0ABFB430703D47621E4
S11323600548FDF7A9FF042000F092FB0820BDE812
S1132370084000F0C3BB00BFC037000008B500F040
S113238097FBC30703D485210548FDF795FF01207A
S113239000F07EFB87210248BDE80840FDF78CBFB2
S11323A0C037000008B500F083FB830703D49321F2
S11323B00548FDF781FF022000F06AFB95210248E1
S11323C0BDE80840FDF778BFC037000008B500F04D
S11323D06FFB030712D5082000F05AFB00F0A4FBA2
S11323E0DFED097A07EE100AB4EEE77AF1EE10FA9F
S11323F0CCBF064B064B20221A6008BDA22105481B
S1132400FDF75AFFE7E700BF0000A042FCA000462A
S1132410FCA00044C037000008B501210B48FDF7BB
S1132420F9FF002211460120FEF77CFC0022114630
S11324301046FEF777FC0A210548FEF727FD012127
S11324400448BDE80840FDF7E5BF00BF4041050072
S113245002001E0030253E0010B501211748FDF78B
S1132460D9FF00210520FFF76DFC0422114600234B
S11324700520FFF78FFC00210520FFF763FC0521F1
S1132480084600230422FFF785FC4FF001110120C8
S1132490FFF758FC0123184604220A21FFF77AFCAF
S11324A0012308220B210220FFF774FC01230822D8
S11324B00A210220BDE81040FFF76CBC00350A0079
S11324C070B584B0424B984204460D466BD0414BE4
S11324D0984277D0636B13F0010F4FF0010354D08F
S11324E0A363636BDE0759D50123E363D5E90102D6
S11324F02B7869788DF800308DF801102B7B0190D2
S11325006946204602928DF80C30FFF751FED5E95A
S113251004202E7E697E304B41EA46010243616409
S1132520A264E16B2A4A0B43E363236C944243F4B1
S1132530F073236441D0274B9C4239D0A368D90758
S113254004D520236360A368DA07FCD4216C236CD0
S1132550214ADB0CDB042364E36B1A43E263636804
S113256043F040036360636843F003036360636B99
S1132570DB05FCD5E26B184B1343E363216463680A
S113258043F02003636004B070BDE363636BD8075A
S1132590ACD540211148FDF78FFEA7E73B210F483A
S11325A0FDF78AFEA0E701210D48FDF733FF91E70F
S11325B00C4B4FF480625A60C0E70A4B4FF4003270
S11325C01A60BBE701210848FDF724FF82E700BF3A
S11325D000C0004000C40040CFFF0700DC3700000B
S11325E00082040000E100E0009204002DE9F041C3
S11325F00F468168069E11F0E00F04461546984682
S113260003D09C210C48FDF757FE022000F0E0FAAD
S11326100A4B0798DD60012207FA02F162601A761C
S11326200022C3E9014783F810805E61D861E1624A
S11326301A70BDE8F08100BFDC370000C000002044
S113264070B58A4B5C6B1A6C14406106DC631BD456
S113265004F0800626BBA30604F480760AD406B9E7
S113266070BD834D2B78052B6CD8DFE803F038312F
S11326702A234B617E4D2B78052B00F2E280DFE8A4
S113268003F0828BA9354879794D2B7804F08006C4
S1132690052B00F2DF80DFE803F0C088A6B1B6BBEB
S11326A0734D2B78052B00F2DA80DFE803F058BE77
S11326B0C4A15D5240F263116E48BDE87040FDF75D
S11326C0FBBD40F25F116B48BDE87040FDF7F4BDFF
S11326D040F25B116748BDE87040FDF7EDBD40F284
S11326E057116448BDE87040FDF7E6BD68696A6843
S11326F00188D36943EA01230421038029705160CE
S1132700002EADD040F267115A48BDE87040FDF785
S1132710D3BD6B686969DA69088842EA00220A80D5
S11327200824022005225C602A705860002E97D08D
S1132730002302202B7000F065FAE869BDE87040C0
S113274000F098B94FF4B8714A48BDE87040FDF7FD
S1132750B3BD40F211114748FDF7AEFD7BE7FC2104
S11327604448FDF7A9FD76E740F20D114148FDF715
S1132770A3FD70E740F241113E48FDF79DFD002E98
S11327803FF46EAF6DE74FF492713A48FDF794FD54
S1132790002E3FF465AF64E74FF494713548FDF7BC
S11327A08BFD002E3FF45CAF5BE7D5E901235B00B2
S11327B043F001030120022150602970D362002EEE
S11327C03FF449AF01215160D362A20604F480763C
S11327D07FF545AF4FF496712648FDF76DFD002E49
S11327E03FF43EAF3DE703232B70002E3FF433AF9D
S11327F040F209111F48FDF75FFD2CE7E1211D4858
S1132800FDF75AFD26E7E5211A48FDF755FD21E7B6
S1132810E9211848FDF750FD1CE76B68EA68DA62A5
S113282001232B70002E3FF416AF4FF48071114832
S1132830FDF742FD0FE7D5E901235B0043F00103F7
S1132840C0E74FF4A2710B48FDF736FD002E3FF4AC
S113285007AF06E7EC210748FDF72EFDFAE64FF433
S11328608A710448FDF728FDF5E600BF00C000406A
S1132870C0000020DC37000010B582B08368044635
S1132880D8070BD4A9B9A368DB070CD42046FFF7FB
S1132890BBFC636B002BFCD102B010BDA368DA074C
S11328A0F4D50029F2D10420019100F0ABF901998B
S11328B0ECE70420019100F08BF9A3680199E5E7A6
S11328C030B585B03E4B984204460D4672D0002187
S11328D02046FFF7D1FF01236360636B002BFCD11B
S11328E0A368DA0761D502236360636B002BFCD114
S11328F001212878E3606A788DF80330ADF804305C
S11329008DF808308DF8021003238DF80100694614
S113291020468DF800208DF806308DF80730FFF73B
S11329208DFC636B002BFCD195ED047AD5ED057A13
S1132930DFED246A6B7B297BAA6827EE267A67EE93
S1132940A67A41EA43016B68BCEEC77AFCEEE77AEB
S11329501A43012095F8283084ED047AC4ED057AF1
S1132960A061E061216495F820106264A26A287E67
S11329709B0043EA41031449034342F007024FF02A
S11329800060A262E3620860A3681049EC69104821
S1132990104A0C60DB076C6AE96A0460116002D5B6
S11329A0042000F015F905B030BD57210A48FDF7A1
S11329B083FC98E701210948FDF72CFD87E700BF58
S11329C00060044000007A4400E100E0E0000020E0
S11329D0E4000020E8000020F8370000800616001C
S11329E010B51C4B1C6ADA6A1440E2079C6206D5D7
S11329F01B6ADB0724D4184B186800F03BF8A007C7
S1132A0007D5144B1B6A99071FD4144B186800F0A0
S1132A1031F8620709D50F4B1B6A5B0706D4104BCC
S1132A20BDE81040186800F025B810BD0D48D62147
S1132A30FDF742FC0A4BBDE81040186800F01AB8D4
S1132A40CC210848FDF738FCD5E7D1210548FDF72E
S1132A5033FCDAE700600440E0000020E4000020DA
S1132A60E8000020F8370000014B00221A6070478C
S1132A70EC00002010B50446FEF7E2FB034A13689D
S1132A802343BDE810401360FEF7DEBBEC000020DA
S1132A9010B50446FEF7D4FB044A136823EA040382
S1132AA0BDE810401360FEF7CFBB00BFEC00002070
S1132AB0014B1868704700BFEC00002070B588B067
S1132AC001A9012300220B4E0B488DF804304FF46A
S1132AD070650F248DF805308DF81C308DF81D308D
S1132AE002928DF810200396CDE90554FFF7E8FC17
S1132AF008B070BD6067010000C0004000B583B03D
S1132B00064B07480822CDE9003240210123F32275
S1132B10FFF76CFD03B05DF804FB00BFF00000207C
S1132B2000C000400000000008B5214B188807EEE3
S1132B30900AF8EE677A17EE900A00F0ABFA16A343
S1132B40D3E9002300F0FEFA00221A4B00F0FAFA4F
S1132B5013A3D3E9002300F03DF900F005FD00F0D4
S1132B6099FA11A3D3E9002300F0ECFA0022124BE6
S1132B7000F032F900F0F8FC07EE900AB2EE047AA5
S1132B8067EE877AFDEEE77AF8EEE77AC7EE877AA2
S1132B9017EE900A08BD00BFD7A3703D0AF7654041
S1132BA0CDCCCCCCCC6C4740CDCCCCCCCCCCFC3F2D
S1132BB0F00000200000F03E00004040034B0022E3
S1132BC0C3E90022C3E902221A617047F40000201D
S1132BD038B50446FEF734FB084A52F82430013372
S1132BE0042B054642F8243003DD48210448FDF750
S1132BF063FB2846BDE83840FEF726BBF4000020FE
S1132C001838000038B50446FEF71AFB0B4A52F890
S1132C102430013B002B054642F8243004DB2846CF
S1132C20BDE83840FEF710BB05485F21FDF744FBC3
S1132C302846BDE83840FEF707BB00BFF40000207B
S1132C401838000010B5FEF7FBFA114B1A68002A79
S1132C50044604DD2046BDE81040FEF7F5BA5A6884
S1132C60002AF7DC9A68002A06DD0A4A136923F071
S1132C700403136130BFEDE7DB68002B4FF0010064
S1132C8002DDFEF775FCE5E7FEF7AEFCE2E700BF08
S1132C90F400002000ED00E080B58AB0424C434FC0
S1132CA094E80F0001AE103486E80F000FCC05AD98
S1132CB00FC522682A803E4B01227A64DB6C1B0E0E
S1132CC06ED13C493C484AF6E8520A60026842F038
S1132CD0040202600B60394A136843F40053136022
S1132CE03749384A0B6A23F4441343F488130B62BC
S1132CF0136843F4F84313600024304602258DF82A
S1132D0000408DF80140FEF733FF68468DF801500E
S1132D10FEF752FD05A8FEF731FA2B48FDF75AFEDF
S1132D20012211460320FDF7FDFF05211120FEF7C6
S1132D30ADF8224621462846FDF7F4FFFFF7CAFA0C
S1132D400FE0FFF7B5FE400715D4FFF7B1FEC1074A
S1132D5017D4FFF7ADFE820719D4FFF7A9FE0307C6
S1132D601BD4FFF7A5FE0028EBD1FFF76BFFFFF79D
S1132D709FFE4007E9D5FFF7EDFAFFF799FEC1077B
S1132D80E7D5FFF7FBFAFFF793FE8207E5D5FFF7D8
S1132D9009FBFFF78DFE0307E3D5FFF717FBE0E719
S1132DA0012B9DD197E700BF4038000000000E4082
S1132DB0B081E00F90310E4098310E4064310E40E6
S1132DC000400E40A4310E4080BA8C0181F00041D5
S1132DD002E000BF83F0004330B54FEA41044FEAFC
S1132DE0430594EA050F08BF90EA020F1FBF54EA97
S1132DF0000C55EA020C7FEA645C7FEA655C00F033
S1132E00E2804FEA5454D4EB5555B8BF6D420CDD03
S1132E102C4480EA020281EA030382EA000083EA86
S1132E20010180EA020281EA0303362D88BF30BD26
S1132E3011F0004F4FEA01314FF4801C4CEA11317C
S1132E4002D0404261EB410113F0004F4FEA0333DB
S1132E504CEA133302D0524263EB430394EA050F66
S1132E6000F0A780A4F10104D5F1200E0DDB02FAD5
S1132E700EFC22FA05F2801841F1000103FA0EF269
S1132E80801843FA05F359410EE0A5F120050EF12F
S1132E90200E012A03FA0EFC28BF4CF0020C43FA60
S1132EA005F3C01851EBE37101F0004507D54FF06D
S1132EB0000EDCF1000C7EEB00006EEB0101B1F5BD
S1132EC0801F1BD3B1F5001F0CD349085FEA300003
S1132ED04FEA3C0C04F101044FEA445212F5800F0E
S1132EE080F09A80BCF1004F08BF5FEA500C50F1AB
S1132EF0000041EB045141EA050130BD5FEA4C0C8E
S1132F00404141EB010111F4801FA4F10104E9D116
S1132F1091F0000F04BF01460020B1FA81F308BF0D
S1132F202033A3F10B03B3F120020CDA0C3208DDD9
S1132F3002F1140CC2F10C0201FA0CF021FA02F1B4
S1132F400CE002F11402D8BFC2F1200C01FA02F124
S1132F5020FA0CFCDCBF41EA0C019040E41AA2BF49
S1132F6001EB0451294330BD6FEA04041F3C1CDA11
S1132F700C340EDC04F11404C4F1200220FA04F031
S1132F8001FA02F340EA030021FA04F345EA0301DB
S1132F9030BDC4F10C04C4F1200220FA02F001FA9D
S1132FA004F340EA0300294630BD21FA04F029461F
S1132FB030BD94F0000F83F4801306BF81F48011B8
S1132FC00134013D4EE77FEA645C18BF7FEA655C2B
S1132FD029D094EA050F08BF90EA020F05D054EAFD
S1132FE0000C04BF1946104630BD91EA030F1EBF02
S1132FF00021002030BD5FEA545C05D14000494106
S113300028BF41F0004130BD14F580043CBF01F5F8
S1133010801130BD01F0004545F0FE4141F47001DE
S11330204FF0000030BD7FEA645C1ABF19461046B9
S11330307FEA655C1CBF0B46024650EA013406BFBA
S113304052EA033591EA030F41F4002130BD00BF79
S113305090F0000F04BF0021704730B54FF4806436
S113306004F132044FF000054FF0000150E700BFB7
S113307090F0000F04BF0021704730B54FF4806416
S113308004F1320410F0004548BF40424FF0000103
S11330903EE700BF42004FEAE2014FEA31014FEA46
S11330A002701FBF12F07F4393F07F4F81F0605195
S11330B0704732F07F4208BF704793F07F4F04BFE0
S11330C041F40021704730B54FF4607401F00045BD
S11330D021F000411CE700BF50EA010208BF70471D
S11330E030B54FF000050AE050EA010208BF70470E
S11330F030B511F0004502D5404261EB41014FF477
S1133100806404F132045FEA915C3FF4D8AE4FF07E
S113311003025FEADC0C18BF03325FEADC0C18BF61
S1133120033202EBDC02C2F1200300FA03FC20FAB2
S113313002F001FA03FE40EA0E0021FA02F11444FF
S1133140BDE600BF70B54FF0FF0C4CF4E06C1CEA18
S113315011541DBF1CEA135594EA0C0F95EA0C0F89
S113316000F0DEF82C4481EA030621EA4C5123EAFC
S11331704C5350EA013518BF52EA033541F480112B
S113318043F4801338D0A0FB02CE4FF00005E1FBDE
S113319002E506F00042E0FB03E54FF00006E1FB28
S11331A003569CF0000F18BF4EF0010EA4F1FF046B
S11331B0B6F5007F64F5407404D25FEA4E0E6D41AB
S11331C046EB060642EAC62141EA55514FEAC520BC
S11331D040EA5E504FEACE2EB4F1FD0C88BFBCF538
S11331E0E06F1ED8BEF1004F08BF5FEA500E50F1E9
S11331F0000041EB045170BD06F0004646EA0101AF
S113320040EA020081EA0301B4EB5C04C2BFD4EBE0
S11332100C0541EA045170BD41F480114FF0000ED9
S1133220013C00F3AB8014F1360FDEBF002001F047
S1133230004170BDC4F10004203C35DA0C341BDCC1
S113324004F11404C4F1200500FA05F320FA04F093
S113325001FA05F240EA020001F0004221F00041C7
S113326010EBD37021FA04F642EB06015EEA430E3A
S113327008BF20EAD37070BDC4F10C04C4F120056A
S113328000FA04F320FA05F001FA04F240EA02001D
S113329001F0004110EBD37041F100015EEA430EEE
S11332A008BF20EAD37070BDC4F1200500FA05F20E
S11332B04EEA020E20FA04F301FA05F243EA02038D
S11332C021FA04F001F0004121FA04F220EA02009C
S11332D000EBD3705EEA430E08BF20EAD37070BDE2
S11332E094F0000F0FD101F00046400041EB0101C2
S11332F011F4801F08BF013CF7D041EA060195F0A4
S1133300000F18BF704703F00046520043EB03035D
S113331013F4801F08BF013DF7D043EA060370474A
S113332094EA0C0F0CEA135518BF95EA0C0F0CD055
S113333050EA410618BF52EA4306D1D181EA03019B
S113334001F000414FF0000070BD50EA410606BF95
S11333501046194652EA430619D094EA0C0F02D1DA
S113336050EA013613D195EA0C0F05D152EA03361F
S11333701CBF104619460AD181EA030101F000413D
S113338041F0FE4141F470014FF0000070BD41F086
S1133390FE4141F4780170BD70B54FF0FF0C4CF460
S11333A0E06C1CEA11541DBF1CEA135594EA0C0F7F
S11333B095EA0C0F00F0A7F8A4EB050481EA030ECC
S11333C052EA03354FEA013100F088804FEA0333B3
S11333D04FF0805545EA131343EA12634FEA022281
S11333E045EA111545EA10654FEA00260EF0004142
S11333F09D4208BF964244F1FD0404F5407402D294
S11334005B084FEA3202B61A65EB03055B084FEA24
S113341032024FF480104FF4002CB6EB020E75EB21
S1133420030E22BFB61A754640EA0C005B084FEA49
S11334303202B6EB020E75EB030E22BFB61A7546C6
S113344040EA5C005B084FEA3202B6EB020E75EB11
S1133450030E22BFB61A754640EA9C005B084FEA89
S11334603202B6EB020E75EB030E22BFB61A754696
S113347040EADC0055EA060E18D04FEA051545EA85
S113348016754FEA06164FEAC30343EA52734FEA2E
S1133490C2025FEA1C1CC0D111F4801F0BD141EAA7
S11334A000014FF000004FF0004CB6E711F4801F0C
S11334B004BF01430020B4F1FD0C88BFBCF5E06FEC
S11334C03FF6AFAEB5EB030C04BFB6EB020C5FEAFC
S11334D0500C50F1000041EB045170BD0EF0004E51
S11334E04EEA113114EB5C04C2BFD4EB0C0541EA83
S11334F0045170BD41F480114FF0000E013C90E680
S113350045EA060E8DE60CEA135594EA0C0F08BF43
S113351095EA0C0F3FF43BAF94EA0C0F0AD150EA42
S113352001347FF434AF95EA0C0F7FF425AF1046D5
S113353019462CE795EA0C0F06D152EA03353FF4FD
S1133540FDAE1046194622E750EA410618BF52EA7A
S113355043067FF4C5AE50EA41047FF40DAF52EA4E
S113356043057FF4EBAE12E74FEA4102B2F1E043C8
S113357024BFB3F5001CDCF1FE5C0DD901F0004C56
S11335804FEAC0024CEA5070B2F1004F40EB8300A6
S113359008BF20F00100704711F0804F21D113F1D2
S11335A03872BCBF01F00040704741F480114FEA0B
S11335B05252C2F11802C2F1200C10FA0CF320FA94
S11335C002F018BF40F001004FEAC1234FEAD323B1
S11335D003FA0CFC40EA0C0023FA02F34FEA43031B
S11335E0CCE77FEA625307D150EA01331EBF4FF0A4
S11335F0FE4040F44000704701F0004040F0FE40BF
S113360040F40000704700BF08B5074B044613B1EF
S11336100021AFF30080054B1868836A03B1984713
S1133620204600F031F800BF0000000064380000BC
S113363070B50D4E0D4CA41BA4100025A54209D154
S11336400B4E0C4C00F022F8A41BA4100025A5423C
S113365005D170BD56F8253098470135EEE756F888
S1133660253098470135F2E78800002088000020C3
S1133670880000208C00002002440346934200D1BD
S1133680704703F8011BF9E7FEE700BFF8B500BF78
S1133690F8BC08BC9E467047F8B500BFF8BC08BC2F
S11336A09E467047000000005FF800F0750000209F
S11336B02E2E2F656D6C69622F656D5F636D752E9F
S11336C06300000040787D0100000000005A62029F
S11336D000010000C0CF6A0002000000809FD500F6
S11336E002010000002D3101020200002E2E2F6580
S11336F06D6C69622F656D5F656D752E63000000EA
S11337002E2E2F656D6C69622F656D5F6770696F12
S11337102E630000633A5C73696C69636F6E6C615D
S113372062735C73696D706C6963697479737475C1
S113373064696F5C76345C646576656C6F70657221
S11337405C73646B735C6765636B6F5F73646B5FFF
S113375073756974655C76322E375C706C6174665F
S11337606F726D5C656D6C69625C696E635C656DDE
S11337705F6770696F2E680080841E00404B4C00A8
S1133780809FD50080841E0040548900002D3101A3
S11337902E2E2F656D6C69622F656D5F6932632E05
S11337A063000000080911082E2E2F656D6C6962F4
S11337B02F656D5F6C6574696D65722E6300000022
S11337C02E2E2F7372632F536F757263655F466974
S11337D06C65732F6170702E630000002E2E2F73A2
S11337E072632F536F757263655F46696C65732FDF
S11337F06932632E630000002E2E2F7372632F53E1
S11338006F757263655F46696C65732F6C65746967
S11338106D65722E630000002E2E2F7372632F537A
S11338206F757263655F46696C65732F736C65654C
S1133830705F726F7574696E65732E6300000000AB
S11338400002080705000A00C8000000FFFF01008D
S113385001000000A00068010A200706020A04070C
S10F386000000000140000200000000024
S10B386CE0C8FF7F0100000029
S1133874C0EA2101005A6202C0EA2101008000006A
S1133884C0EA210100000000000000000000000064
S11338940000000000000000000000000000000020
S11338A40000000000000000000000000000000010
S11338B40000000000000000000000000000000000
S11338C400000000000000000000000000000000F0
S11338D400000000000000000000000000000000E0
S11338E400000000034A136843F0004330BF136030
S11338F4704700BF4C310E40310100000D0100003F
S90301C13A
