S012000049525F554152545F4C61622E7333373E
S113000000000420C1010000ED010000ED0100002A
S1130010ED010000ED010000ED010000ED01000024
S1130020ED010000ED010000ED010000ED01000014
S1130030ED010000EC010000ED010000ED01000005
S1130040ED010000ED010000ED010000ED010000F4
S1130050ED010000ED010000ED010000ED010000E4
S1130060ED010000ED010000ED010000ED010000D4
S1130070ED010000ED010000ED010000ED010000C4
S1130080ED010000AD3F0000ED010000ED010000B6
S1130090ED010000ED0100005D470000ED010000EE
S11300A0ED010000ED010000ED0100000945000034
S11300B0ED010000ED010000ED010000ED01000084
S11300C0ED010000ED010000ED010000ED01000074
S11300D0ED010000ED010000ED010000ED01000064
S11300E0ED010000ED010000ED010000ED01000054
S11300F0ED010000ED010000ED010000ED01000044
S1130100ED010000ED010000ED01000010B5054C0B
S1130110237833B9044B13B10448AFF300800123AF
S1130120237010BD1402002000000000487F00006E
S113013008B5034B1BB103490348AFF3008008BD66
S11301400000000018020020487F0000154B002B1F
S113015008BF134B9D46A3F5803A00218B460F46FA
S11301601348144A121A05F0A4FA0F4B002B00D0BE
S113017098470E4B002B00D0984700200021040024
S11301800D000D48002802D00C48AFF3008005F0A4
S113019061FA2000290004F099FD05F047FA00BF38
S11301A0000008000000042000000000000000001F
S11301B014020020000300200000000000000000E2
S11301C0064880470649074A074B9A42BEBF51F882
S11301D0040B42F8040BF8E7FFF7B8FFE502000050
S11301E0547F00000000002014020020FEE700BF3E
S11301F080B582B000AF00F025F878600A4BD3F8E0
S113020008311B0AC3F308033B603B6801337A6877
S1130210B2FBF3F37B60054A7B6813607B68184686
S11302200837BD4680BD00BF00400E4008000020D6
S113023080B400AF024B1846BD465DF8047B70479E
S1130240005A620280B483B000AF1C4BD3F89430E0
S113025003F00703023B032B1BD801A252F823F03F
S1130260810200007902000071020000890200008E
S1130270134B1B687B6010E04FF400437B600CE081
S1130280104B1B687B6008E00F4B1B685B087B60AE
S113029003E00D4B1B687B6000BF084BD3F80031B3
S11302A01B0A03F01F0301337A68B2FBF3F3184609
S11302B00C37BD465DF8047B704700BF00400E401C
S11302C004000020000000200C00002080B400AFD7
S11302D0034B1B681846BD465DF8047B704700BF9E
S11302E00000002080B400AF074B084A9A60064B18
S11302F0D3F88830044A43F47003C2F8883000BF4E
S1130300BD465DF8047B704700ED00E0000000008E
S113031080B400AF4FF400431846BD465DF8047B3B
S1130320704780B400AF4FF47A731846BD465DF849
S1130330047B704780B400AF034B1B681846BD466E
S11303405DF8047B704700BF0400002080B483B0D4
S113035000AF78603960FEE780B487B000AFF86022
S1130360B9607A60FB6803F10473DA00BB68134474
S11303709B007B617B697A681A6000BF1C37BD46AD
S11303805DF8047B704780B485B000AF7860396055
S11303907B6803F10473DA003B6813449B00FB6041
S11303A0FB681B6818461437BD465DF8047B70472C
S11303B080B582B000AF78607B681F2B04D94FF4FE
S11303C096710548FFF7C2FF01227B6802FA03F326
S11303D018460837BD4680BDB079000080B400AF30
S11303E0064B1B6803F04003002B01D1012300E0FE
S11303F000231846BD465DF8047B70473C300E4030
S113040080B500AFFFF7EAFF034683F00103DBB2D8
S1130410002B08D100BF12210448FFF7B4FF0346A4
S1130420002BF8D100E000BF80BD00BF04300E40B7
S113043080B500AFFFF7E4FF034B5B681B0C03F0D0
S11304400303DBB2184680BD00300E4080B584B093
S113045000AF78600123FB607B68124A934204D8A2
S11304600023FB600023BB6008E07B680E4A9342D4
S113047002D80123BB6001E00223BB60FA681021AB
S11304800A48FFF769FF094BD3F8003123F0807263
S1130490BB681B0605491343C1F8003100BF103780
S11304A0BD4680BD0048E8010090D00300400E40E6
S11304B080B483B000AF054B1B687B607B68184633
S11304C00C37BD465DF8047B704700BF1000002068
S11304D080B582B000AFFFF7B5FE7860064BD3F865
S11304E000311B0A03F01F0301337A6802FB03F394
S11304F018460837BD4680BD00400E4080B582B026
S113050000AF0F4800F068FC0346FB70FB78072B34
S113051005D0092B07D1FFF795FE78600BE0FFF7B4
S1130520C7FF786007E000237B6040F6155105485B
S1130530FFF70CFF00BF7B6818460837BD4680BD37
S113054006000E007C7A000080B584B000AF7860AD
S11305507B68002B1CD1204800F03EFC0346FB7254
S113056000BFFB7A013B072B28D801A252F823F0E5
S11305709F050000BD050000BD050000AD0500009D
S1130580BD050000BD050000A5050000B50500007F
S113059040F635511148FFF7D9FE002317E0002338
S11305A0FB6013E0FFF784FFF8600FE0FFF78EFEB7
S11305B0F8600BE0FFF78CFFF86007E00023FB60B6
S11305C040F64C510548FFF7C1FE00BFFB681846D2
S11305D01037BD4680BD00BFB80032007C7A0000F1
S11305E080B584B000AF78603960204B5B6803F05D
S11305F04073FB600023BB6012E01D4ABB68DB0054
S113060013441A793B68DBB29A4206D1184ABB6894
S113061052F833307A689A4206D9BB680133BB601A
S1130620BB68042BE9D900E000BFBB68052B07D1E8
S11306300323FB6040F653610E48FFF787FE05E095
S11306400B4ABB68DB0013445B79FB60FB681B0649
S1130650FB60064B5B6823F040720449FB6813435C
S11306604B6000BF1037BD4680BD00BF00000E4088
S1130670907A00007C7A000080B582B000AF0E4B07
S11306801B6C002B14BF01230023FB710A4B41F6A2
S113069071321A64FFF7CCFD034600211846FFF7B8
S11306A09FFFFB79002B02D0034B00221A6400BF8A
S11306B00837BD4680BD00BF00000E4080B584B041
S11306C000AF786039600C4B1B6C002B14BF012306
S11306D00023FB73084B41F671321A643968786859
S11306E0FFF77EFFFB7B002B02D0034B00221A6432
S11306F000BF1037BD4680BD00000E4080B487B0F7
S113070000AF78600F237B617B6803333B617B69B7
S1130710FB60FA683B69934228BF1346BB60BB6821
S11307201B07BB60BB6818461C37BD465DF8047BDD
S11307307047000080B400AF044B5B6A1B0903F0F0
S113074003031846BD465DF8047B704700400E4025
S113075080B483B000AF7860074B5B6A23F030024B
S11307607B681B01044913434B6200BF0C37BD4631
S11307705DF8047B704700BF00400E4090B585B023
S113078000AF78600023BB607B683C4A93420BD087
S11307903B4A934208D03B4A934205D040F65371FA
S11307A03948FFF7D3FD00E000BF786800F014FB80
S11307B00346FB607B68314A93420CD0304A934233
S11307C010D0304A934214D1304BD3F8803003F028
S11307D00703FB6013E02D4BD3F8843003F00703C9
S11307E0FB600CE0294BD3F8883003F00703FB606F
S11307F005E040F682712448FFF7A8FD00BFFB68BE
S1130800042B2ED801A252F823F000BF5D0800008B
S11308102108000029080000390800003108000000
S1130820FFF776FDB86024E0FFF784FDB86020E0B0
S1130830FFF777FDB8601CE0FFF704FD0446134B97
S1130840D3F800311B0E03F0010301331846FFF700
S1130850AFFD0346B4FBF3F3BB600AE00023BB60C7
S113086007E00023BB6040F6D4710748FFF76EFD34
S113087000BFBB6818461437BD4690BD0300200076
S11308800500240002001E007C7A000000400E4097
S113089080B483B000AF78600A4BD3F8443103F0DE
S11308A00103002B08D100BF064BD3F840217B681D
S11308B01340002BF8D100E000BF0C37BD465DF8B3
S11308C0047B704700400E4080B400AF00BFBD46BB
S11308D05DF8047B704780B400AF00BFBD465DF88F
S11308E0047B704780B582B000AF7860786800F010
S11308F093F90346013318460837BD4680BD00000E
S113090080B586B000AF78600B46FB7000233B6176
S11309107B681B0A03F00F03013B092B32D801A2A9
S113092052F823F04D090000590900008509000020
S113093085090000530900005F09000069090000EF
S113094085090000730900007F0900001A4B7B61D0
S11309501EE01A4B7B611BE0194B7B6118E0194BBD
S11309607B6101233B6113E0174B7B6110233B61E7
S11309700EE0164B7B614FF480333B6108E0144B6F
S11309807B6105E041F2F2311248FFF7DFFC10E031
S11309907B681B0B03F01F03FB603B69002B02D039
S11309A03869FFF775FFFB781A46F9687869FFF72D
S11309B0D3FC1837BD4680BD00400E40B0400E4009
S11309C0C0400E40E0400E40E8400E40F0400E4073
S11309D050410E407C7A000090B585B000AF78603D
S11309E07B6803F47813B3F5B01F00F09480B3F57B
S11309F0B01F21D8B3F5202F58D0B3F5202F08D835
S1130A00B3F5003F56D0B3F5802F40D0002B3AD039
S1130A10EBE0B3F5602F00F0D080B3F5602F03D87E
S1130A20B3F5402F55D0E0E0B3F5801F00F0C98046
S1130A30B3F5A01F61D0D8E0B3F5101F00F0B88063
S1130A40B3F5101F0BD8B3F5F01F51D0B3F5001F49
S1130A5000F08280B3F5D01F00F08380C5E0B3F5C9
S1130A60401F00F09180B3F5401F03D8B3F5381F41
S1130A7063D0BAE0B3F5481F00F0A780B3F5781F40
S1130A8000F0A880B1E0FFF7DDFBF860B5E0FFF708
S1130A90D9FBF8605B4BD3F80C311B0AC3F3080392
S1130AA00133FA68B2FBF3F3FB60A6E0FFF7CAFB7D
S1130AB0F860A2E0FFF7C6FBF860524BD3F80831A8
S1130AC01B0AC3F308030133FA68B2FBF3F3FB60B8
S1130AD093E0FFF7B7FBF8604A4BD3F814311B0AD5
S1130AE003F01F030133FA68B2FBF3F3FB6084E005
S1130AF04548FFF743FEF8607FE04448FFF73EFEB9
S1130B00F860404BD3F8303103F00303FA6822FA5B
S1130B1003F3FB6071E03C48FFF730FEF860394BAB
S1130B20D3F8203103F00F031846FFF741FC0246C7
S1130B30FB68B3FBF2F3FB605FE03348FFF71EFE94
S1130B40F860304BD3F820311B0903F00303FA6833
S1130B5022FA03F3FB6050E02D48FFF70FFEF86024
S1130B604BE02B48FFF70AFEF860264BD3F82831F8
S1130B701B0903F003031846FFF71AFC0246FB683F
S1130B80B3FBF2F3FB6038E02148FFF7F7FDF860B0
S1130B901C4BD3F828311B0A03F003030433184613
S1130BA0FFF706FC0246FB68B3FBF2F3FB6024E0AC
S1130BB01648FFF7E3FDF8601FE0FFF79FFCF860BD
S1130BC01BE0FFF775FCF86017E00020FFF7BCFCA2
S1130BD0F86012E0FFF736FB04467868FFF782FE00
S1130BE00346B4FBF3F3FB6007E00023FB6041F230
S1130BF022510848FFF7AAFB00BFFB6818461437C8
S1130C00BD4690BD00400E4002001E0005002400B9
S1130C10030020007C7A000080B584B000AF7860C7
S1130C207B681B0903F00F03BB60BB68013B092B06
S1130C3000F2B78001A252F823F000BF650C000057
S1130C40750C0000850C0000A50C0000A30D00002D
S1130C50A30D0000B50C0000C50C00001D0D000024
S1130C607B0D0000554BD3F800311B0A03F01F0322
S1130C70FB609EE0514BD3F814311B0A03F01F03B1
S1130C80FB6096E04D4BD3F800311B0E03F00103DB
S1130C90FB60FB6801331846FFF78AFB0346013B00
S1130CA0FB6086E0454BD3F80C311B0AC3F3080301
S1130CB0FB607EE0414BD3F808311B0AC3F3080301
S1130CC0FB6076E07B683E4A934203D03D4A934200
S1130CD00DD01AE0394BD3F8203103F00F03FB6039
S1130CE0F868FFF765FB0346013BFB6015E0334BF7
S1130CF0D3F820311B0903F00303FB60F868FFF706
S1130D0057FB0346013BFB6007E00023FB6041F215
S1130D1096512D48FFF71AFB00BF4AE07B682B4A27
S1130D20934203D02A4A93420ED01DE0234BD3F8BA
S1130D3028311B0903F00303FB60F868FFF738FB55
S1130D400346013BFB6017E01C4BD3F828311B0A18
S1130D5003F00303FB60FB6804331846FFF728FB2A
S1130D600346013BFB6007E00023FB6041F2BA51FC
S1130D701548FFF7EBFA00BF1BE07B68154A934266
S1130D8006D10E4BD3F8303103F00303FB6007E0C8
S1130D900023FB6041F2C9510B48FFF7D7FA00BFAB
S1130DA007E00023FB6041F2EE510748FFF7CEFA5B
S1130DB000BFFB6818461037BD4680BD00400E409A
S1130DC08006160080162E007C7A000090171A0008
S1130DD090273000A009140080B584B000AF78607B
S1130DE00123FB737B6803F00F03BB60BB68013B0B
S1130DF0072B00F2C48001A252F823F01D0E00005C
S1130E00730E0000A30E00007F0F0000E90E000027
S1130E10190F00007F0F00003D0F00005E4BD3F858
S1130E20943003F00703023B052B1ED801A252F8AD
S1130E3023F000BF590E0000530E00004D0E0000B9
S1130E405F0E00006B0E0000650E00000223FB73B2
S1130E500EE00323FB730BE00423FB7308E00B2376
S1130E60FB7305E00C23FB7302E00523FB7300BF57
S1130E708DE0494BD3F8803003F00703022B06D0F2
S1130E80042B07D0012B08D10323FB7308E00223B2
S1130E90FB7305E00A23FB7302E00123FB7300BF2D
S1130EA075E03D4BD3F8843003F00703013B032B7B
S1130EB016D801A252F823F0C90E0000CF0E00008C
S1130EC0DB0E0000D50E00000323FB730BE00223AE
S1130ED0FB7308E00A23FB7305E00623FB7302E0BF
S1130EE00123FB7300BF52E02B4BD3F8883003F08F
S1130EF00703022B06D0042B07D0012B08D10323B0
S1130F00FB7308E00223FB7305E00A23FB7302E092
S1130F100123FB7300BF3AE01F4B1B6F03F0010377
S1130F20002B04D0012B05D10923FB7305E0072313
S1130F30FB7302E00123FB7300BF28E0164BD3F8D8
S1130F405C3103F03003102B0CD0102B02D8002B93
S1130F5005D010E0202B08D0302B09D00BE0012362
S1130F60FB730BE00723FB7308E00423FB7305E02A
S1130F700823FB7302E00123FB7300BF07E0002397
S1130F80FB7341F642110548FFF7E0F900BFFB7B14
S1130F9018461037BD4680BD00400E407C7A0000E4
S1130FA080B58AB000AF78600B46FB7003237B6288
S1130FB0032387F823300023BB6100237B617B6814
S1130FC0112B19D1FB78042B03D1FFF77FF978613A
S1130FD00BE0FB78052B08D100F0F4F90246BA4B7C
S1130FE09A4202D900F0EEF978617B69002B03D0B4
S1130FF00021786901F022F87B6803F00F033B615C
S11310003B69013B072B00F2558101A252F823F002
S1131010311000003B1100006D110000B5120000FA
S11310204F1100000D120000B5120000371200002D
S1131030FB78023B0A2B49D801A252F823F000BFE7
S11310406D1000007910000085100000971000005A
S1131050CD100000CD100000CD100000CD10000018
S1131060C1100000A9100000B510000004237B6229
S1131070002387F823302FE003237B62012387F8C2
S1131080233029E002237B62022387F823308F4830
S1131090FFF7DCF920E001237B62032387F8233088
S11310A08A48FFF7D3F917E005237B62032387F807
S11310B0233011E007237B62062387F823300BE0FB
S11310C041F603218248FFF741F9F9E041F608218E
S11310D07F48FFF73BF9F3E097F82330062B06D05F
S11310E097F8233001220121184600F0B5FAFFF7E2
S11310F0C3FAFFF7E9FB7B69002B01D0FFF780F906
S1131100744A7B6A5367FFF773F8F860FFF79AF83D
S113111003461846FFF79AF9FFF78AF9034619467A
S1131120F868FFF7CBFA7B69002B03D1012100207B
S113113000F084FFFFF7CFFBC2E0674BBB61FB7895
S1131140062B04D141F647216148FFF7FFF8BB693C
S1131150002B01D0BB6900E0604BBB61FB78062B20
S113116004D141F657215A48FFF7F0F8BB69002B28
S113117001D0BB6900E05A4BBB61FB78013B092BF2
S11311803AD801A252F823F0B1110000B7110000BF
S1131190C7110000F9110000F9110000D711000077
S11311A0F9110000F9110000F9110000F311000019
S11311B00023FB6126E001220121002000F04CFA0B
S11311C00223FB611EE001220121012000F044FA08
S11311D00123FB6116E0FFF735F803461846FFF7D5
S11311E035F9012202213F48FFF7B6F80323FB61DA
S11311F008E00423FB6105E041F682213448FFF74F
S1131200A5F85DE0BB69FA691A6059E0FB78072B21
S113121002D0092B04D007E02E4B00221A6709E004
S11312202C4B01221A6705E041F60C312848FFF7E0
S11312308DF845E044E0FB78013B072B28D801A258
S113124052F823F065120000911200009112000080
S11312507B12000091120000911200006B1200003A
S11312608B1200000023FB6118E0012201210420FD
S113127000F0F2F90123FB6110E0012201210220B8
S113128000F0EAF90223FB6108E00323FB6105E0B7
S113129041F66A310E48FFF759F811E00D4BD3F8C7
S11312A05C3123F03002FB691B010A491343C1F886
S11312B05C3105E041F641410548FFF747F800BFBE
S11312C02837BD4680BD00BF002D31010148E8012B
S11312D07C7A000000400E4080400E4088400E4062
S11312E084400E40B0400E4080B483B000AF7860BC
S11312F07B68294A93422FD0274A934210D8274A21
S1131300934221D0254A934203D8254A93421BD0C5
S11313103AE0244A934217D0234A934218D033E048
S1131320224A934224D0214A934206D8204A934227
S113133016D0204A934217D026E01F4A93421BD06E
S11313401E4A93421CD01FE01D4BD3F880301CE092
S11313501B4BD3F88C3018E0194BD3F8983014E0B9
S1131360174BD3F89C3010E0154BD3F8A0300CE0A9
S1131370134BD3F8A83008E0114BD3F8AC3004E099
S11313800F4BD3F8B03000E0002318460C37BD46AD
S11313905DF8047B704700BF405DC60080841E007A
S11313A040420F0000093D00C0CF6A0080BA8C01A2
S11313B00024F400C0EA21010048E80180D543027A
S11313C0B081E00F80B400AF034B1B681846BD46E4
S11313D05DF8047B704700BF0C00002080B586B028
S11313E000AF78607868FFF77FFF78617B69002B36
S11313F003D07B69B3F1FF3F04D141F6D3514E488A
S1131400FEF7A4FF4D4B1B683B614C4A7B6813609D
S11314101120FFF7E1FC0346052B03D1FFF72CF95C
S1131420FFF752FA00BF18214548FEF7ACFF034608
S1131430002BF8D17B69B3F1FF3F04D141F6E451AD
S11314403D48FEF783FF7B683E4A93420DD03E4AF7
S1131450934211D03D4A934200D012E07B6923F0BD
S1131460C06343F080637B610BE07B6923F0C0635E
S113147043F000737B6104E07B6923F0C0637B610C
S113148000BF1120FFF7A8FC0346052B02D17868A2
S1131490FEF7DCFF7A683B699A4203D90121786838
S11314A000F0CCFD2A4A7B6913611120FFF794FCFC
S11314B00346052B26D1FEF79BFEF860FA687B688D
S11314C09A4204D941F610611B48FEF73FFF1B4BBB
S11314D01B68FA689A4204D941F611611648FEF76E
S11314E035FF164B1B687A689A4204D041F61261A4
S11314F01148FEF72BFFFEF79BFF03461946F868D9
S1131500FFF7DCF8FEF79EFE03461846FEF79EFF43
S11315107A683B699A4203D80121002000F08EFDCD
S11315201120FFF759FC0346052B01D1FFF7D3F92E
S113153000BF1837BD4680BD7C7A00000C00002037
S113154040410E4080841E0000093D0040420F00CF
S113155000400E4090B585B000AF78601120FFF7D1
S11315603BFC0346042B04D141F6F1613748FEF7F6
S1131570EDFE01220021022000F06EF87B685B780A
S1131580002B07D17B689B78002B03D17B68DB7829
S1131590002B04D041F62F712C48FEF7D7FE002310
S11315A0FB607B681B7C012B04D141F63471274816
S11315B0FEF7CCFE7B681B7C022B01D10123FB6070
S11315C0234B5B6A23F001022149FB6813434B62FE
S11315D07B681B781A4608211E48FEF7BDFE7B680F
S11315E09B88DB027A68527A1146194A0B43D3620C
S11315F0174B1B6B03F07F627B68DB88DB021343B2
S11316007A68927A1A437B681B7ADB0142EA030404
S11316107B681B7A1846FFF771F803460C4A23438C
S113162013637B685B7B1A037B689B7B1B011343FF
S11316307A68D27B1A437B681B7B1B0404491343DF
S11316404B6300BF1437BD4690BD00BF7C7A0000D9
S113165000400E4024400E4080B588B000AF0346E1
S1131660FB710B46BB7113467B71FB79042B3CD891
S113167001A252F823F000BFD5160000C3160000E3
S11316809F1600008D160000B116000001237B6137
S113169002233B610123FB610023BB612BE0042394
S11316A07B6108233B610323FB610223BB6122E0CE
S11316B010237B6120233B610523FB610423BB6171
S11316C019E040237B6180233B610723FB610623F0
S11316D0BB6110E04FF480737B614FF400733B6196
S11316E00923FB610823BB6105E042F24701454839
S11316F0FEF72CFE83E0BB79002B64D00023FB7340
S1131700FB79022B1AD1FFF715F80346002B15D1EC
S11317103D4BDB6B03F48063002B04D142F2560192
S11317203848FEF713FE0123FB73384B5B6A03F062
S11317300103012B02D10120FFF70AF8334A7B6928
S1131740136600BFB9693248FEF71DFE0346002B3D
S1131750F8D07B79002B52D000BFF9692C48FEF7F2
S113176012FE0346002BF8D0FB79022B47D1FB7BFA
S1131770002B44D0254B5B6A03F00103012B05D1F8
S113178001222021022000F087F903E00021022039
S113179000F028F9022000F03DF8B8600122002191
S11317A00220FFF759FFB968022000F071F8174AC8
S11317B07B69136600BFF9691548FEF7E4FD03462B
S11317C0002BF8D01BE0114A3B69136600BF0F4B96
S11317D0D3F890300121BA6901FA02F21340002BC8
S11317E0F5D17B79002B0AD000BF084BD3F8903099
S11317F00121FA6901FA02F21340002BF5D12037D6
S1131800BD4680BD7C7A000000300E4000400E4092
S113181090400E4080B584B000AF0346FB71FB7965
S1131820013B032B23D801A252F823F03D180000FA
S1131830611800004918000055180000124B1B6A7B
S1131840C3F30803FB601AE00F4B1B6903F07F032B
S1131850FB6014E00C4B9B6903F07F03FB600EE01C
S1131860094BD3F89C30C3F30A03FB6007E0002361
S1131870FB6042F2D3010548FEF768FD00BFFB6838
S113188018461037BD4680BD00400E407C7A0000EB
S113189080B584B000AF03463960FB71FB79013B2E
S11318A0032B00F28C8001A252F823F0BD18000033
S11318B071190000FD180000371900003B68B3F5EA
S11318C0007F04D342F2F9014248FEF73FFD3B6832
S11318D0C3F308033B6000BF1A213F48FEF753FDE2
S11318E00346002BF8D13D4B1B6A23F4FF7323F00E
S11318F001033A493A6813430B6266E03B687F2B65
S113190004D942F206113348FEF720FD3B6803F088
S11319107F033B6000BF18212F48FEF734FD0346C8
S1131920002BF8D12D4B1B6923F07F022B493B6818
S113193013430B6149E03B687F2B04D942F2211128
S11319402448FEF703FD3B6803F07F033B6000BFC0
S113195019212148FEF717FD0346002BF8D11F4B30
S11319609B6923F07F021D493B6813438B612CE084
S11319701A4BD3F8903003F00403002B04D042F246
S113198030111448FEF7E2FC144B5B6A23F0300379
S1131990124A43F0100353623B68DB0903F00F0360
S11319A01846FEF7ABFEF8600C4B1A6B0C4B134059
S11319B03A681A430949FB6813430B6305E042F292
S11319C04A110448FEF7C2FC00BF00BF1037BD46F1
S11319D080BD00BF7C7A000040410E4000400E40B4
S11319E000F8FF0F80B584B000AF03460A46FB71D0
S11319F01346BB71FB79022B04D042F262112348D7
S1131A00FEF7A4FCFEF796FE0346002B03D14FF429
S1131A104003FB601BE0BB79202B04D0302B0AD0A1
S1131A20002B04D00BE04FF40003FB600FE04FF4F5
S1131A304003FB600BE04FF44003FB6007E0144BF2
S1131A40FB6042F27D111148FEF780FC00BF00BF2D
S1131A50104BD3F89020FB681340FA689A42F7D1F0
S1131A60FB6803F48003002B0AD00A4BD3F8A030A0
S1131A7003F48063002B14BF01230023DBB200E0D6
S1131A80012318461037BD4680BD00BF7C7A000094
S1131A90FF33E10700400E4080B582B000AF03463B
S1131AA0FB710B46BB7113467B71FB79022B15D17D
S1131AB0BB79002B07D00F4B4FF48062C3F8A820EA
S1131AC00C4ABB7953667B79002B0DD0BA79FB792C
S1131AD011461846FFF786FF034607E042F2B311AA
S1131AE00548FEF733FC00E000BF01231846083721
S1131AF0BD4680BD00400E407C7A000080B483B0B7
S1131B0000AFEFF310833B603B687B6072B67B6889
S1131B1018460C37BD465DF8047B704780B483B02B
S1131B2000AF78607B68002B00D162B600BF0C3731
S1131B30BD465DF8047B704780B500AFFEF758FBE7
S1131B4000BF80BD80B487B000AFF860B9607A6030
S1131B50FB6803F10473DA00BB6813449B007B61E8
S1131B607B697A681A6000BF1C37BD465DF8047B48
S1131B70704780B485B000AF786039607B6803F14A
S1131B800473DA003B6813449B00FB60FB681B682A
S1131B9018461437BD465DF8047B704780B400AF27
S1131BA0064B1B6803F04003002B01D1012300E026
S1131BB000231846BD465DF8047B70473C300E4058
S1131BC080B500AFFFF7EAFF034683F00103DBB201
S1131BD0002B08D100BF12210448FFF7CAFF0346B7
S1131BE0002BF8D100E000BF80BD00BF04300E40E0
S1131BF080B500AFFFF7E4FF034B5B681B0C03F0F9
S1131C000303DBB2184680BD00300E4080B483B0BD
S1131C1000AF7860044A7B68D36200BF0C37BD46CE
S1131C205DF8047B704700BF00300E4080B400AF05
S1131C30034B5B6A1846BD465DF8047B704700BFE2
S1131C4000300E4080B400AF034B00225A6300BF43
S1131C50BD465DF8047B704700300E4080B400AF91
S1131C60044B4AF6E8525A6300BFBD465DF8047B54
S1131C70704700BF00300E4080B400AF044B002218
S1131C80C3F8802100BFBD465DF8047B704700BFE8
S1131C9000400E4080B400AF044B45F60E02C3F87A
S1131CA0802100BFBD465DF8047B704700400E40B4
S1131CB080B483B000AF0346FB71FB79C3F1020328
S1131CC0102202FA03F318460C37BD465DF8047B74
S1131CD07047000090B585B000AF0346FB71FB79F7
S1131CE0002B1BD14A4BD3F890304A4A1360112081
S1131CF0FFF772F803461A46474B1A70FFF760FF66
S1131D00464B5B681B0CDBB203F00303DAB2444BB3
S1131D101A703F4B1B69434A136075E0FFF73EFF9F
S1131D200346002B07D03E4B1B783C4C1846FFF76C
S1131D30BFFF03462361364BD3F8803103F0010320
S1131D40FB60FFF7A7FF0023BB60324B1B6803F067
S1131D500103BA681343BB602E4B1B6803F01003E6
S1131D60BA681343BB602B4B1B6803F04003BA688B
S1131D701343BB60274B1B6803F00403BA68134387
S1131D80BB60244B1B6803F48073BA681343BB60C5
S1131D901F4ABB681366FFF713FF204B1B6803F051
S1131DA01003002B18D000BF194BD3F8403103F0B7
S1131DB08073002BF8D1164A1A4B1B681361164B1B
S1131DC01B78052B08D1184B1C68FFF711FF03463D
S1131DD019462046FEF772FC0F4B1B78052B05D0E5
S1131DE00D4B1B7819461120FFF7DAF8094B1B68D5
S1131DF003F00103002B02D1054B02221A66FB6893
S1131E00002B01D0FFF738FF00BF1437BD4690BD4B
S1131E1000400E403C0200204002002000300E40F2
S1131E2041020020440200200C00002080B582B052
S1131E3000AFFFF7B3FE034683F00103DBB2002BD0
S1131E401FD1FFF7BDFE114B1B681B0A03F00303F0
S1131E507B600E4B5B681B0C03F003033B607A68EA
S1131E603B689A4206D9094B1B68084A43F01003A1
S1131E70136007E0054B1B68044A23F0100313604A
S1131E8000E000BF0837BD4680BD00BF00300E40F3
S1131E9080B483B000AF0C4B1B6803F01003002B1D
S1131EA00BD00A4B1B691B0C03F01F037B607B6880
S1131EB0082B02D1064B074A1A6000BF0C37BD46F7
S1131EC05DF8047B704700BF00300E4000400E40B8
S1131ED00C000020C0EA210180B400AF00BFBD4661
S1131EE05DF8047B704780B400AF00BFBD465DF869
S1131EF0047B704780B584B000AF0346FB71FB7967
S1131F00002B02D00020FFF7E5FEFFF78FFF1A4BEE
S1131F101B69194A43F004031361FFF7DDFF174BF4
S1131F201B6803F01003002B08D0FFF7E7FDF860EF
S1131F3005F03AFDF868FFF7F1FD00E030BFFFF768
S1131F40D2FFFB79002B03D00120FFF7C3FE01E091
S1131F50FFF79EFF0A4B1B68094A23F000431360F6
S1131F60FB7983F00103DBB2002B01D0FFF7E4FD22
S1131F7000BF1037BD4680BD00ED00E000300E40CC
S1131F804C310E4080B584B000AF0346FB71FB7941
S1131F90002B02D00020FFF79DFEFFF747FF234BE5
S1131FA0D3F8803103F00103FB60FFF773FE1F4B8E
S1131FB04FF420721A66FB68002B01D0FFF75CFE19
S1131FC01B4B1B691A4A43F004031361FFF784FF98
S1131FD0184B1B6803F01003002B08D0FFF78EFD8D
S1131FE0B86005F0E1FCB868FFF798FD00E030BF89
S1131FF0FFF779FFFB79002B03D00120FFF76AFE7E
S113200001E0FFF745FF0C4B1B680B4A23F000432C
S11320101360FB7983F00103DBB2002B01D0FFF7DF
S11320208BFD00BF1037BD4680BD00BF00400E4091
S113203000ED00E000300E404C310E4080B584B01D
S113204000AF78600B46FB70FFF7A8FD034683F0F2
S11320500103DBB2002B28D17B68002B0FD1154B79
S1132060D3F800311B0A03F01F030133BB60FEF7F2
S1132070E9F80246BB6802FB03F3FB6001E07B68FE
S1132080FB600D4B1B78002B09D0FB680B4A934275
S113209005D8FB781946022000F012F806E0FB7818
S11320A01946002000F00CF800E000BF1037BD46D0
S11320B080BD00BF00400E4038020020002D3101D9
S11320C090B587B000AF03460A46FB711346BB7157
S11320D0FFF764FD034683F00103DBB2002B3AD122
S11320E0FFF786FD03461A46FB79934235D01D4B14
S11320F0D3F800311B0A03F01F0301337B61FEF7A1
S1132100A1F838613B697A6902FB03F3FB60FB7950
S1132110022B0CD1FB68144A934204D940F2E151DA
S11321201248FEF713F902213869FEF7C7FA104C7A
S1132130FB791846FFF7BCFD03462361BB79002BEE
S113214001D0FFF73DFDFB79002B07D10021386951
S1132150FEF7B4FA02E000BF00E000BF1C37BD4642
S113216090BD00BF00400E40002D3101B87A000040
S113217000300E4080B582B000AF78600E4B1B6813
S113218023F440727B685B781B020B4913430B609A
S11321907B685B78022B0AD1084B5B6A03F000531F
S11321A0002B04D040F21D610548FEF7CFF800BFB4
S11321B00837BD4680BD00BF00300E4000400E40D1
S11321C0B87A000080B400AF01231846BD465DF81C
S11321D0047B704780B582B000AF0C4BDB6E0B4ABA
S11321E043F08073D36600210948FFF7C2FC78608E
S11321F07B68002B03D0042000F04EFD02E0002099
S113220000F04AFD00BF0837BD4680BD00300E40D7
S11322104C300E4080B58AB000AF01237B627B6AEC
S11322201B053B62404BDB6C1B0A03F00F03FB6195
S11322303E4B1B881A463D4B1B8828335B081344CE
S113224003F12801FB695A1C13469B001344B1FB9C
S1132250F3F3013BBB61BB697B6107233B613A69D3
S11322607B69934228BF1346BB61BB691B06BB61F4
S1132270BB6923F0E063002B04D040F2FF712C48CB
S1132280FEF764F83B6A23F4E003002B04D04FF418
S113229000612748FEF75AF8234BDB6C23F0EE620B
S11322A0B9693B6A0B4320491343CB64214BB3F90F
S11322B00030002B33DB1F4BB3F90030FB81FA896C
S11322C0FB8928335B08134403F12802FB690133BB
S11322D05900FB6901335B080B44B2FBF3F3BB60A9
S11322E0BB687B6007233B603A687B68934228BFE6
S11322F01346BB60BB681B01BB60BB6823F0700363
S1132300002B04D040F618010948FEF71FF8064BCD
S11323101B6D23F070020449BB6813430B6500BFB7
S11323202837BD4680BD00BF00300E40300200207B
S1132330B87A00003402002080B483B000AF786023
S11323400B467B807B689AB2054B1A80054A7B88D2
S1132350138000BF0C37BD465DF8047B704700BF97
S1132360300200203402002080B582B000AF034662
S1132370FB71FB79002B02D0012B04D007E0094B41
S1132380094A9A6509E0074B084A9A6505E040F650
S113239044010748FDF7DAFF00BF00BF0837BD4618
S11323A080BD00BF00300E4077402057372110B762
S11323B0B87A000080B584B000AF0346FB710B46C9
S11323C0BB7113467B71334BD3F88031FB60BB790F
S11323D0032B1DD801A252F823F000BFED23000007
S11323E0F5230000FF23000009240000FB68DBB292
S11323F0FB6014E0FB681B0ADBB2FB600FE0FB68C8
S11324001B0CDBB2FB600AE0FB681B0EFB6006E002
S113241040F688012048FDF799FF002336E07B79D8
S1132420002B16D1FB681B03FB60FB6823F470438D
S1132430002B06D040F693011748FDF787FF0023D1
S113244024E0164BDB6E23F470421449FB681343FB
S1132450CB667B79012B18D1FB681B03FB60FB68FF
S113246023F47043002B06D040F69F010A48FDF781
S11324706DFF00230AE0094BD3F8EC3023F47042DB
S11324800649FB681343C1F8EC30012318461037A2
S1132490BD4680BDB081E00FB87A000000300E4028
S11324A080B588B000AFF860B96011461A460B4693
S11324B0FB711346BB710023FB610023BB61BB7935
S11324C01B02FA79002A01D0012200E00022134302
S11324D07B617B6940F2011293422AD0B3F5817F7C
S11324E007D2012B19D0012B47D3B3F5807F50D0ED
S11324F073E040F20122934227D040F2012293423A
S113250003D8B3F5007F50D067E0B3F5407F58D0CF
S113251040F20132934224D05FE0384BD3F8743157
S1132520FB61FB691B0ADBB2BB61FB69DBB2FB61CC
S113253059E0324BD3F87431FB61FB691B0EBB616C
S1132540FB691B0CDBB2FB614DE02C4BD3F87831FB
S1132550FB61FB691B0ADBB2BB61FB69DBB2FB619C
S113256041E0264BD3F87831FB61FB691B0EBB615C
S1132570FB691B0CDBB2FB6135E0204BD3F86C31FB
S1132580FB61FB691B0ADBB2BB61FB69DBB2FB616C
S113259029E01A4BD3F86C31FB61FB691B0EBB615C
S11325A0FB691B0CDBB2FB611DE0144BD3F87031EB
S11325B0FB61FB691B0ADBB2BB61FB69DBB2FB613C
S11325C011E00E4BD3F87031FB61FB691B0EBB614C
S11325D0FB691B0CDBB2FB6105E040F60411084803
S11325E0FDF7B4FE00BFFB68FA691A60BB68BA69FC
S11325F01A6000BF2037BD4680BD00BFB081E00F28
S1132600B87A000080B584B000AF0346FB713E4B3E
S11326105B6B012B0CBF01230023FB73FFF71EFB35
S113262000BF394B9B6F03F00103002BF9D1364BEC
S11326301B6C03F00303BB60BB68002B04D00122B6
S11326400D213248FFF77EFABB68DBB2FA799A4271
S113265008D1FB79002B53D100220D212B48FFF721
S113266071FA4DE0BB68032B02D0BB68002B20D16C
S1132670FB79022B02D0FB79012B1AD14FF40020F5
S1132680FFF7C4FA00BF204B9B6F03F00103002B3C
S1132690F9D11D4B1B6C23F003031B4A43F00103C8
S11326A0136400BFFFF7C2FA034603F40023002BB0
S11326B0F8D000BF144B9B6F03F00103002BF9D13A
S11326C0114B1B6C23F00302FB790F4913430B647A
S11326D000BF0D4B9B6F03F00103002BF9D1FB7975
S11326E0002B14BF01230023DBB21A460D21074837
S11326F0FFF728FAFB7B002B03D0FFF7A3FA00E0D7
S113270000BF1037BD4680BD00300E4054300E402F
S113271080B584B000AF78606B4B02229A636A4B39
S11327209B6B03F00F03022B06D040F6A6116748FB
S1132730FDF70CFE0023C3E0FFF744FD7B681B8913
S1132740C82B04D94FF41B616048FDF7FFFD7B687B
S11327509A887B681B899A4204D940F6B1115B4878
S1132760FDF7F4FD7B68B3F90C30C82B04DD40F6AB
S1132770B2115648FDF7EAFD7B685B78012B09D15D
S11327807B689B88C82B12D940F6B6114F48FDF7D9
S1132790DDFD0CE07B685B78022B08D17B689B88AD
S11327A00A2B04D940F6BB114848FDF7CFFD7B68DE
S11327B0DB8842F21072934204D940F6C3114348B5
S11327C0FDF7C4FD7B68DB884A2B02D80023FB603D
S11327D015E07B68DB88B3F5FA7F03D24FF08053B2
S11327E0FB600CE07B68DB8840F6C312934203D89D
S11327F04FF00053FB6002E04FF04053FB60324B5C
S1132800DB6C23F0405323F001037A68B2F90C2007
S1132810002A01DB012100E00021FA680A432A4969
S11328201343CB64284BD3F8EC30274A43F440736A
S1132830C2F8EC307B689A88254B1A80FFF7CAFCF3
S11328407B681B891A467B68B3F90C30194610461D
S1132850FFF772FD7B689B88184600F0A9F97B6836
S11328609B7B1846FFF780FD7B685B880122012172
S1132870184600F031F8034683F00103DBB2002B65
S113288006D040F6FA111148FDF760FD002317E069
S11328900D4BDB6B0C4A43F48063D3637B685B783A
S11328A01846FFF7AFFE7B689B7A202B01D10123EA
S11328B000E000231A4605210648FFF743F90123E7
S11328C018461037BD4680BD00300E40B87A00006F
S11328D0320200203C300E4090B595B000AF7860D5
S11328E00B46FB701346BB700023FB6400237B6420
S11328F007F1240300221A605A609A6007F1180352
S113290000221A605A609A6007F10C0300221A60D0
S11329105A609A6007F1080300210A461A800A46A1
S11329209A707B68B3F5E16F06D37B6840F6B832E2
S1132930934201D8012300E0002387F8433097F83D
S1132940433003F0010387F8433097F8433083F0B2
S11329500103DBB2002B06D040F63F219148FDF77E
S1132960F5FC002319E17B68B3F5E16F8CBF01230B
S1132970002387F8423097F84230002B0AD04FF4F6
S1132980E163FB6440F6B8337B647A6CFB6CD31A66
S1132990BB6409E04FF49663FB644FF4E1637B642A
S11329A07A6CFB6CD31ABB6497F84230002B0BD0C3
S11329B07D4BD3F868313B623B6A1B0E7B613B6AFB
S11329C01B0CDBB23B620AE0774BD3F868313B6205
S11329D03B6A1B0ADBB27B613B6ADBB23B62734B33
S11329E0DB6C1B0FDBB203F00303DBB23B723B7AFD
S11329F097F8422007F10C0107F11800FFF750FD8A
S1132A006A4BD3F8EC301B0ADBB203F00303DBB2EE
S1132A107B727C7A97F8422007F10C03191D07F1A9
S1132A201803181D2346FFF73BFD7A68FB6CD31A85
S1132A3079693A6A8A1A02FB03F2BB6CB2FBF3F3BC
S1132A40FB62FA6A3B6A1344FB627A68FB6CD31A32
S1132A50F968BA698A1A02FB03F2BB6CB2FBF3F39E
S1132A607B627A6ABB6913447B627A68FB6CD31A13
S1132A703969FA698A1A02FB03F2BB6CB2FBF3F3FD
S1132A80BB62BA6AFB691344BB62FA6A7B699A4205
S1132A9013D8FA6A3B6A9A420FD3BA6A3B699A42DC
S1132AA00BD8BA6AFB699A4207D37A6AFB689A42DE
S1132AB003D87A6ABB699A4206D240F68D21394816
S1132AC0FDF744FC002368E0BB78002B12D0374BA1
S1132AD0DB6D23F4FE4323F00203FA6A120213436C
S1132AE097F84220002A01D0022200E000222F4958
S1132AF01343CB65FB78002B4ED0397A97F84230DC
S1132B0000221846FFF756FC034683F00103DBB2AC
S1132B10002B06D040F69C212248FDF717FC002329
S1132B203BE0797A97F8423001221846FFF742FCDD
S1132B30034683F00103DBB2002B06D040F6A42148
S1132B401848FDF703FC002327E07B6AFB63BB6A9C
S1132B50BB63BA6BFB6B934238BF13467B627B6AE1
S1132B607B63E7233B633A6B7B6B934228BF13463B
S1132B707B620E4B5B6E23F4FF7323F001037A6ACE
S1132B805200134397F84220002A01D0012200E0AA
S1132B900022064913434B66012318465437BD46A9
S1132BA090BD00BFB87A0000B081E00F00300E4045
S1132BB080B584B000AF78600023FB60344B1B6F9A
S1132BC003F00703BB60324BDB6C03F00103002B03
S1132BD014D0BB68012B11D97B68132B02D80423B2
S1132BE0FB603DE07B68132B05D97B68272B02D85B
S1132BF00823FB6034E01023FB6031E0244BDB6CE2
S1132C0003F00103002B14D1BB68012B11D87B689E
S1132C10092B02D80423FB6022E07B68092B05D929
S1132C207B68132B02D80823FB6019E01023FB6098
S1132C3016E0174BDB6C03F00103002B0BD0BB68D1
S1132C40012B08D87B68272B02D80823FB6007E0F8
S1132C501023FB6004E040F6E2210E48FDF776FB0A
S1132C60FB68013BFB60FB681A02FB681B03134310
S1132C70FB60074BDB6C23F47F420549FB6813437D
S1132C80CB64FFF7C7FA00BF1037BD4680BD00BF55
S1132C9000300E40B87A000080B584B000AF03461F
S1132CA0FB7100211148FEF764FFF860FB68002BFC
S1132CB002D1FB79012B07D9FB68002B04D140F624
S1132CC001310B48FDF742FB0A4B1B6F23F007024F
S1132CD0FB79084913430B67074B1B881846FFF71A
S1132CE067FF00BF1037BD4680BD00BF4C300E40AB
S1132CF0B87A000000300E403202002080B485B063
S1132D0000AF786039607B6803F1C063FB60FB68E7
S1132D103A681A6000BF1437BD465DF8047B7047FB
S1132D2080B485B000AF786039607B6803F180635C
S1132D30FB60FB683A681A6000BF1437BD465DF853
S1132D40047B704780B584B000AFF860B9607A60E6
S1132D50B968F868FFF7E4FF7968F868FFF7CEFF11
S1132D6000BF1037BD4680BD80B582B000AF0346BA
S1132D703960FB71FB79002B38D0FB79012B32D001
S1132D80FB79022B2CD0FB79032B26D0FB79042B67
S1132D9021D0FB79052B1BD0FB79062B16D0FB79B0
S1132DA0072B11D0FB79082B0CD0FB79092B06D00B
S1132DB0FB790A2B01D107231AE0002318E04FF412
S1132DC0404315E00F2313E0002311E000230FE03C
S1132DD04FF6FF730CE000230AE04FF47F4307E053
S1132DE040F6FF7304E04FF6C07301E040F2FF3396
S1132DF03A68134103F00103002B04D14FF47771B7
S1132E000C48FDF7A3FAFA7913465B0013441B013F
S1132E100C3303F1804303F5204301213A6801FA9E
S1132E2002F211461846FFF77BFF00BF0837BD4684
S1132E3080BD00BFCC7A000080B582B000AF0346ED
S1132E403960FB71FB79002B38D0FB79012B32D030
S1132E50FB79022B2CD0FB79032B26D0FB79042B96
S1132E6021D0FB79052B1BD0FB79062B16D0FB79DF
S1132E70072B11D0FB79082B0CD0FB79092B06D03A
S1132E80FB790A2B01D107231AE0002318E04FF441
S1132E90404315E00F2313E0002311E000230FE06B
S1132EA04FF6FF730CE000230AE04FF47F4307E082
S1132EB040F6FF7304E04FF6C07301E040F2FF33C5
S1132EC03A68134103F00103002B04D140F20B4193
S1132ED00C48FDF73BFAFA7913465B0013441B01D7
S1132EE00C3303F1804303F5204301213A6801FACE
S1132EF002F211461846FFF701FF00BF0837BD462E
S1132F0080BD00BFCC7A000080B582B000AF03461C
S1132F103960FB71FB79002B1DD0FB79012B1AD092
S1132F20FB79022B17D0FB79032B14D0FB79042BEC
S1132F3016D0FB79052B0ED0FB79062B10D0FB792C
S1132F40072B0DD0FB79082B05D0FB79092B02D078
S1132F50FB790A2B04D13B6823F00113002B03D027
S1132F6082210B48FDF7F2F9FA7913465B0013440A
S1132F701B0103F1804303F520433A684FF001112C
S1132F801846FFF7DFFE00BF0837BD4680BD00BF0F
S1132F90307B000080B584B000AFB9607B6003462D
S1132FA0FB731346BB73FB7B002B38D0FB7B012BDD
S1132FB032D0FB7B022B2CD0FB7B032B26D0FB7B5C
S1132FC0042B21D0FB7B052B1BD0FB7B062B16D0BF
S1132FD0FB7B072B11D0FB7B082B0CD0FB7B092B35
S1132FE006D0FB7B0A2B01D107231AE0002318E04B
S1132FF04FF4404315E00F2313E0002311E00023B6
S11330000FE04FF6FF730CE000230AE04FF47F4318
S113301007E040F6FF7304E04FF6C07301E040F2AE
S1133020FF33BA68134103F00103002B04D140F2CB
S11330301B113948FDF78AF9BB7B002B0DD07B6847
S1133040002B05D0FB7BB9681846FFF7F5FE04E0BA
S1133050FB7BB9681846FFF787FEBB68072B20D8AF
S11330602E49FA7B13465B0013441B010B440433C3
S11330701A68BB689B000F2101FA03F3DB4313407A
S1133080B97BBA68920001FA02F211462348FA7B2E
S1133090194313465B0013441B01034404331960B2
S11330A025E01E49FA7B13465B0013441B010B44C5
S11330B008331A68BB6803F18043083B9B000F2167
S11330C001FA03F3DB4302EA0301BA7BBB6803F1B1
S11330D08043083B9B0002FA03F31048FA7B194330
S11330E013465B0013441B01034408331960BB7B84
S11330F0002B0DD17B68002B05D0FB7BB9681846EB
S1133100FFF79AFE04E0FB7BB9681846FFF72CFE34
S113311000BF1037BD4680BD307B000000A00040DA
S113312080B483B000AF786039607B683A68DA6352
S113313000BF0C37BD465DF8047B704780B487B090
S113314000AFF860B9607A60FB6803F10473DA00D9
S1133150BB6813449B007B617B697A681A6000BF7B
S11331601C37BD465DF8047B704780B485B000AF62
S1133170786039607B6803F1C063FB60FB683A6880
S11331801A6000BF1437BD465DF8047B704780B4F5
S113319085B000AF786039607B6803F18063FB60C1
S11331A0FB683A681A6000BF1437BD465DF8047BBB
S11331B0704780B584B000AFF860B9607A60B968D0
S11331C0F868FFF7E4FF7968F868FFF7CEFF00BFFF
S11331D01037BD4680BD000080B588B000AFF860F0
S11331E0B9607A60FB707B68002B04D14FF48A715C
S11331F05448FDF7ABF87B68002B00F09E80FB7809
S113320003F00303FB70FB681B6823F44072FB6844
S11332101A60F868FB781B021A464FF44071FFF7F6
S1133220C8FFBB68002B16D1FB68474A934204D100
S11332304648FDF7D1FBB8600DE0FB68444A934271
S113324004D14448FDF7C8FBB86004E04FF497711B
S11332503C48FDF77BF84FF0FF33FB61FB681B68CC
S113326003F00203002B10D0FB78012B07D0022BB4
S113327008D0002B00D019E0374BFB6116E0374B28
S1133280FB6113E0364BFB6110E0FB78012B07D0A8
S1133290022B08D0002B00D008E02F4BFB6105E087
S11332A0304BFB6102E0304BFB6100BFBA68FB6945
S11332B09A4204D840F263112248FDF747F8FB789C
S11332C02A4AD35C7B617B697A6802FB03F33B6126
S11332D03B69002B05D14FF4BA711A48FDF736F853
S11332E02CE07B68DB00BA68D21A3B6913445A1E8F
S11332F03B69B2FBF3F3013BBB61BB69002B04DA0E
S11333004FF4BD710F48FDF721F8BB69B3F5007F99
S113331004D340F27B110B48FDF718F8FB681B68D7
S113332003F00203002B04D0BB69002B01D101235D
S1133330BB61BA69FB681A6100E000BF2037BD4673
S113334080BD00BF487B000000C000400082040034
S113335000C400400092040080841E00404B4C00D6
S1133360809FD50040548900002D3101447B00002A
S113337080B582B000AF78600B46FB707B680B4A67
S1133380934208D07B680A4A934204D04FF4CA712E
S11333900848FCF7DBFF7B68FA7800211846FFF742
S11333A0CDFE00BF0837BD4680BD00BF00C0004051
S11333B000C40040487B000080B582B000AF786054
S11333C039607B68174A934208D07B68164A934257
S11333D004D040F2A9111548FCF7B8FF7B6800221D
S11333E01A6413497868FFF79BFE78683B685B783A
S11333F083F00103DBB21A460121FFF79FFE3B680D
S113340059683B689A683B681B7B7868FFF7E4FE61
S11334103B681B7819467868FFF7AAFF00BF083796
S1133420BD4680BD00C0004000C40040487B000091
S1133430FFFF070080B483B000AF7860396000BF3D
S11334407B685A6B3B681340002BF9D100BF0C37E3
S1133450BD465DF8047B704780B582B000AF7860EC
S11334600B46FB707B680D4A934204D04FF489717C
S11334700B48FCF76BFF02217868FFF7DBFFFB7852
S1133480002B03D07B6801225A6002E07B68022291
S11334905A6000BF0837BD4680BD00BF00600440CD
S11334A05C7B000080B584B000AF78603960002395
S11334B0FB607B683D4A934204D040F26F113C4864
S11334C0FCF744FF3B681B7883F00103DBB2002B5D
S11334D00CD07B689B6803F00103002B06D002210B
S11334E07868FFF7A7FF7B6802225A603B685B7825
S11334F0002B03D0FB6843F48053FB603B689B784C
S1133500002B03D13B68DB68002B0BD0FB6843F432
S11335100073FB603B68DB68002B03D03B68DA6810
S11335207B681A613B68DB78002B03D0FB6843F4AB
S11335308073FB603B681B79002B03D0FB6843F06E
S11335404003FB603B685B79002B03D0FB6843F0CE
S11335508003FB603B689B799B001A46FB6813431E
S1133560FB603B68DB791B011A46FB681343FB6075
S11335703B681B7A1A46FB681343FB607B68FA6856
S11335801A603B681B78002B0CD07B689B6803F0A7
S11335900103002B06D102217868FFF74BFF7B68FB
S11335A001225A6000BF1037BD4680BD0060044050
S11335B05C7B000080B483B000AF786039607B68C6
S11335C01B6C03F00103002B07D100BF7B685A6C0E
S11335D03B681340002BF9D100E000BF0C37BD4617
S11335E05DF8047B7047000080B586B000AFF860DA
S11335F0B9607A607B68002B04D140F203111D4846
S1133600FCF7A4FEBB68002B10D1FB681A4A934256
S113361006D11A4B7B617869FDF7DEF9B86005E0E5
S113362040F22B111348FCF791FE1FE0BB685A01CE
S11336307B68B2FBF3F33B613B69203B3B613B6935
S1133640DB003B613B690E4A934204D94FF49C7101
S11336500848FCF77BFE3A69094B13403B6104219F
S1133660F868FFF7A7FFFB683A69DA601837BD46C8
S113367080BD00BF747B000000A0044090171A00B6
S1133680F8FF010080B584B000AF78600B46FB7092
S11336907B68104A934204D04FF4AE710E48FCF795
S11336A055FEFB78DB43FB60FB6803F00503FB601E
S11336B0FB685B00FB60FB78FA681343FB60022144
S11336C07868FFF777FF7B68FA685A6000BF1037A5
S11336D0BD4680BD00A00440747B000080B483B06C
S11336E000AF78600B46FB70FB78002B08D000BF5E
S11336F07B685B6C002BFBD17B6801221A6402E0BF
S11337007B6800221A6400BF0C37BD465DF8047B59
S11337107047000080B582B000AF786039607B6884
S11337201B4A934204D040F2BD111A48FCF70EFE26
S113373002217868FFF73EFF7B680A225A60012164
S11337407868FFF7CBFF7B681B6823F01C033A689B
S1133750127B13433A68527B13433A68927B1A43B1
S11337607B681A603B6859683B689B681A467868AE
S1133770FFF73AFF3B681B781A467B685A600021C2
S11337807868FFF7ABFF00BF0837BD4680BD00BFB8
S113379000A00440747B000080B485B000AF786062
S11337A039607B6803F1C063FB60FB683A681A60A8
S11337B000BF1437BD465DF8047B704780B485B004
S11337C000AF786039607B6803F18063FB60FB685D
S11337D03A681A6000BF1437BD465DF8047B704731
S11337E080B582B000AF03463960FB71FB79002BD2
S11337F038D0FB79012B32D0FB79022B2CD0FB790A
S1133800032B26D0FB79042B21D0FB79052B1BD06D
S1133810FB79062B16D0FB79072B11D0FB79082BEB
S11338200CD0FB79092B06D0FB790A2B01D1072395
S11338301AE0002318E04FF4404315E00F2313E08F
S1133840002311E000230FE04FF6FF730CE0002388
S11338500AE04FF47F4307E040F6FF7304E04FF6BD
S1133860C07301E040F2FF333A68134103F00103EF
S1133870002B04D14FF477710C48FCF767FDFA79FB
S113388013465B0013441B010C3303F1804303F51F
S1133890204301213A6801FA02F211461846FFF763
S11338A08DFF00BF0837BD4680BD00BF8C7B000084
S11338B080B582B000AF03463960FB71FB79002B01
S11338C038D0FB79012B32D0FB79022B2CD0FB7939
S11338D0032B26D0FB79042B21D0FB79052B1BD09D
S11338E0FB79062B16D0FB79072B11D0FB79082B1B
S11338F00CD0FB79092B06D0FB790A2B01D10723C5
S11339001AE0002318E04FF4404315E00F2313E0BE
S1133910002311E000230FE04FF6FF730CE00023B7
S11339200AE04FF47F4307E040F6FF7304E04FF6EC
S1133930C07301E040F2FF333A68134103F001031E
S1133940002B04D140F20B410C48FCF7FFFCFA7940
S113395013465B0013441B010C3303F1804303F54E
S1133960204301213A6801FA02F211461846FFF792
S113397013FF00BF0837BD4680BD00BF8C7B00002D
S113398080B500AF00F0CCFF01F0C8F800F06CF98E
S113399000F090F94FF4E0531C220949094800F063
S11339A013F801F003F8032001F0D2F8402120209D
S11339B000F014F9102000F0BFFF00BF80BD00BF6D
S11339C09A99193ECDCC2C4080B590B000AFF860E8
S11339D0B9607A603B6000233B7400237B747B688E
S11339E07B613B68BB6100233B7700237B77FB68EB
S11339F03B62BB687B62012387F83830002387F879
S1133A002830002387F830300123FB6202237B63D4
S1133A100423FB6307F110031946054800F084FCF6
S1133A200121034800F040FD00BF4037BD4680BD82
S1133A300060044080B500AF00F0ACFF034603F023
S1133A400403002B03D17F210548FCF77FFC0420ED
S1133A5000F088FF082000F0CDFF00BF80BD00BF4C
S1133A60F07B000080B500AF00F094FF034603F044
S1133A700103002B03D18E210548FCF767FC0120CC
S1133A8000F070FF90210248FCF760FC00BF80BD8D
S1133A90F07B000080B500AF00F07CFF034603F02C
S1133AA00203002B03D19C210548FCF74FFC0220A4
S1133AB000F058FF9E210248FCF748FC00BF80BD7F
S1133AC0F07B000080B582B000AF00F063FF0346D6
S1133AD003F00803002B03D1AB212148FCF736FC8B
S1133AE0082000F03FFF00F09BFF7860D7ED017ADB
S1133AF09FED1C7AF4EEC77AF1EE10FA04DD05218D
S1133B000520FFF7D5FE03E005210520FFF768FE39
S1133B10D7ED017AFDEEE76AD7ED017AB2EE047AC9
S1133B2067EE877AFDEEE77A17EE901A0E4B83FB69
S1133B3001239A10CB17D21A13469B0013445B003F
S1133B40CA1A134616EE902A0849094802F018FAD0
S1133B50074800F075F800BF0837BD4680BD00BFB8
S1133B60F07B00000000A042676666660C7C0000E3
S1133B704802002080B500AF00F00CFF034603F0BC
S1133B801003002B03D1C8210748FCF7DFFB1020EA
S1133B9000F0E8FE0121054800F086FC044800F02E
S1133BA04FF800BF80BD00BFF07B00000060044000
S1133BB01C7C000080B500AF00F0ECFE034603F06F
S1133BC02003002B03D1E1210348FCF7BFFB202095
S1133BD000F0C8FE00BF80BDF07B000080B58EB051
S1133BE000AF786039604FF41653BB6000233B7319
S1133BF005237B730023BB7300237B630023FB73C8
S1133C003B68FB62012387F828301223BB61012340
S1133C10FB617B683B63012387F829304FF49053A1
S1133C203B6201237B6207F108031946034800F055
S1133C30DFFC00BF3837BD4680BD00BF00A0044094
S1133C4080B582B000AF7860786802F0B9F90346B5
S1133C501A467968034800F02BFE00BF0837BD46BA
S1133C6080BD00BF00A0044080B500AF01210D4815
S1133C70FCF746FE002200210120FDF7EDFC0122A5
S1133C8001210020FDF7E8FC02210748FDF788F92F
S1133C900A210648FDF784F901210548FCF730FEA6
S1133CA000BF80BD404105000300200002001E004B
S1133CB030253E0080B500AF01212048FCF720FEEE
S1133CC000210520FFF720F9002304220421052008
S1133CD0FFF760F900210520FFF716F900230422FD
S1133CE005210520FFF756F94FF001110120FFF7D8
S1133CF00BF9012304220A210120FFF74BF90123C8
S1133D0008220B210220FFF745F9012308220A218A
S1133D100220FFF73FF94FF480310320FFF7F4F856
S1133D20012304220A210320FFF734F9002301228E
S1133D300B210320FFF72EF900BF80BD00350A00D8
S1133D4080B483B000AF0346FB7197F90730002BB2
S1133D500BDBFB7903F01F02074997F907305B0976
S1133D60012000FA02F241F8232000BF0C37BD46BF
S1133D705DF8047B704700BF00E100E080B586B0C9
S1133D8000AF786039607B683C4A934204D10121DA
S1133D903B48FCF7B5FD07E07B683A4A934203D100
S1133DA001213948FCF7ACFD7B685B6B03F0010330
S1133DB0002B10D07B6801229A637B685B6B03F055
S1133DC00103002B03D13B213048FCF7BFFA7B6889
S1133DD00122DA630CE07B680122DA637B685B6BA7
S1133DE003F00103002B03D040212848FCF7AEFA6E
S1133DF03B681B783B723B685B787B723B685B6813
S1133E00FB603B689B683B613B681B7B3B7507F130
S1133E10080319467868FFF7CFFA3B681B7E5B00FE
S1133E203A68527E1A437B685A643B681A693B6855
S1133E305B691A437B689A647B68DA6B144B13439F
S1133E407A68D3637B681B6C43F4F0727B681A64F2
S1133E507B680A4A934203D11120FFF771FF06E001
S1133E607B68084A934202D12A20FFF769FF7868E9
S1133E7000F010F800BF1837BD4680BD00C00040F8
S1133E800082040000C40040009204002C7C000066
S1133E90CFFF070080B485B000AF78607B689B6873
S1133EA003F00103002B09D07B6820225A6000BF75
S1133EB07B689B6803F00103002BF9D17B681B6CC2
S1133EC0FB607B681B6CDB0CDB047A6813647B6827
S1133ED0DA6B164B13437A68D3637B685B6843F0F1
S1133EE040027B685A607B685B6843F003027B682E
S1133EF05A6000BF7B685B6B03F48073002BF9D0BE
S1133F007B68DA6B094B13437A68D3637B68FA687E
S1133F101A647B685B6843F020027B685A6000BFC8
S1133F201437BD465DF8047B704700BFCFFF070020
S1133F3080B584B000AFF860B9607A60FB70FB684C
S1133F409B6803F0E003002B03D09C211548FCF789
S1133F50FDF9022000F0FCFD134B00221A70124AF6
S1133F60FB685360104ABB6893600F4A7B68D36058
S1133F700D4AFB7813740C4ABB6953610A4AFB6906
S1133F80D361094B01221A76074B5B6801225A6000
S1133F90054B9A68044B5B685200DA6200BF103725
S1133FA0BD4680BD2C7C00008802002080B582B014
S1133FB000AFFDF7A3FD7860154B5A6B144B1B6CD7
S1133FC013403B60124A3B68D3633B6803F04003F1
S1133FD0002B01D000F01EF83B6803F08003002B97
S1133FE001D000F06DF83B6803F02003002B01D0F2
S1133FF000F0B4F83B6803F48073002B01D000F0A8
S113400029F97868FDF78AFD00BF0837BD4680BDF1
S113401000C0004080B500AF274B1B78052B44D867
S113402001A252F823F000BF4140000059400000B3
S11340307F4000008D40000097400000A140000038
S11340401D4B5B681C4AD268DA621B4B1B78013338
S1134050DAB2194B1A702DE0174B5B6801225A60D3
S1134060154B9B685A00144B5B6842F00102DA62FC
S1134070114B1B780133DAB20F4B1A701AE00E4B56
S11340801B780133DAB20C4B1A7013E0E6210B48AB
S1134090FCF75CF90EE0EA210848FCF757F909E05F
S11340A0EE210648FCF752F904E0F1210348FCF73D
S11340B04DF900BF00BF80BD880200202C7C0000A9
S11340C080B500AF234B1B78052B3AD801A252F8D8
S11340D023F000BFED400000F9400000054100005E
S11340E01F4100002B4100003741000040F2011144
S11340F01948FCF72BF92AE040F205111648FCF7A1
S113410025F924E0134B5B6801225A60114B9B682C
S11341105A00104B5B6842F00102DA6217E04FF478
S113412087710D48FCF712F911E04FF489710A48C0
S1134130FCF70CF90BE04FF48B710748FCF706F918
S113414005E040F219110448FCF700F900BF00BF74
S113415080BD00BF880200202C7C000080B500AF29
S11341603A4B1B78052B69D801A252F823F000BF03
S11341708941000095410000A1410000AD410000CB
S1134180EB4100003142000040F229113048FCF7B5
S1134190DDF859E040F22D112D48FCF7D7F853E033
S11341A040F231112A48FCF7D1F84DE0274B5B6906
S11341B01A88264B5B69120292B21A80234B5B6801
S11341C0DA69224B5B69198892B2204B5B690A4316
S11341D092B21A801D4B1B780133DAB21B4B1A7052
S11341E01A4B5B6804225A602EE0184B5B691A88EC
S11341F0164B5B69120292B21A80144B5B68DA693F
S1134200124B5B69198892B2104B5B690A4392B2F4
S11342101A800E4B1B780133DAB20C4B1A700B4B1D
S11342205B6808225A60094B5B6802225A600BE003
S11342304FF4A3710648FCF789F805E040F24911F0
S11342400348FCF783F800BF00BF80BD880200204C
S11342502C7C000080B500AF224B1B78052B39D88D
S113426001A252F823F000BF814200008D420000F9
S113427099420000A5420000B1420000BD42000086
S11342804FF4AE711848FCF761F829E04FF4B071AF
S11342901548FCF75BF823E04FF4B2711248FCF7C1
S11342A055F81DE04FF4B4710F48FCF74FF817E0D0
S11342B04FF4B6710C48FCF749F811E0094B0022A1
S11342C01A70022000F066FC064BDB69184600F009
S11342D033FB05E040F275110348FCF737F800BFE3
S11342E000BF80BD880200202C7C000080B483B015
S11342F000AF0346FB7197F90730002B0BDBFB790A
S113430003F01F02074997F907305B09012000FAFF
S113431002F241F8232000BF0C37BD465DF8047B50
S1134320704700BF00E100E080B588B000AF78605E
S113433039607B68554A934203D101215448FCF704
S1134340DFFA0021786800F0AFF87B6801225A6038
S113435000BF7B685B6B002BFBD17B689B6803F021
S11343600103002B03D157214A48FBF7EFFF7B6879
S113437002225A6000BF7B685B6B002BFBD17B6819
S11343800022DA600023FB720123BB723B681B78B6
S11343907B723B685B783B7200233B7300237B7327
S11343A000233B740323BB730323FB7307F108034C
S11343B019467868FFF776F800BF7B685B6B002BC3
S11343C0FBD13B68D3ED047A9FED337A67EE877AAD
S11343D0FCEEE77A17EE903AFB613B68D3ED057A81
S11343E09FED2D7A67EE877AFCEEE77A17EE903A26
S11343F0BB617B68FA691A617B68BA695A617B6838
S113440001229A617B680122DA613B685B7B5B0075
S11344103A68127B1A437B681A643B689A683B6863
S11344205B681A437B685A647B689B6A43F00702A3
S11344307B689A623B681B7E1A463B6893F820307F
S11344405B001A433B6893F828309B001A437B684F
S1134450DA621B20FFF74AFF3B68DB690F4A1360EF
S11344603B685B6A0E4A13603B68DB6A0D4A136063
S11344707B689B6803F00103002B02D0042000F04A
S113448067FB00BF2037BD4680BD00BF006004400D
S113449080061600487C000000007A44A802002030
S11344A0AC020020B002002080B582B000AF78607A
S11344B00B46FB707B689B6803F00103002B05D15E
S11344C0FB78002B02D0042000F042FB7B689B6841
S11344D003F00103002B08D0FB7883F00103DBB267
S11344E0002B02D0042000F055FBFB7819467868B5
S11344F0FEF7B2FF00BF7B685B6B002BFBD100BFF4
S11345000837BD4680BD000080B582B000AF244BA3
S11345101A6A234BDB6A13407B60214A7B689362EF
S11345207B6803F00103002B0ED01D4B1B6A03F0C4
S11345300103002B03D0CC211A48FBF707FF1A4BC9
S11345401B68184600F0F8F97B6803F00203002B9F
S11345500ED0134B1B6A03F00203002B03D0D121AE
S11345601048FBF7F3FE114B1B68184600F0E4F902
S11345707B6803F00403002B0ED0094B1B6A03F085
S11345800403002B03D0D6210648FBF7DFFE084BBB
S11345901B68184600F0D0F900BF0837BD4680BD3F
S11345A000600440487C0000A8020020AC02002007
S11345B0B002002080B483B000AF0346FB7197F9CA
S11345C00730002B0BDBFB7903F01F02074997F937
S11345D007305B09012000FA02F241F8232000BFF2
S11345E00C37BD465DF8047B704700BF00E100E076
S11345F080B586B000AF786039607B68514A9342D9
S113460003D101215048FCF77BF97B681B69002B1F
S113461010D17B6801221A6100BF7B685B6C002BA0
S1134620FBD17B681B69012B14D056214748FBF74B
S11346308DFE0FE07B6800221A6100BF7B685B6C13
S1134640002BFBD17B681B69002B03D05C213F4806
S1134650FBF77CFE3B681B683B613B681B793B7541
S11346603B685B793B723B689B797B753B68DB6A93
S1134670FB603B68DB79BB7507F108031946786872
S1134680FFF748F800BF7B685B6C002BFBD13B68ED
S11346905A693B68DB695B001A437B685A653B686F
S11346A01A693B689B691A437B689A6500BF7B68FB
S11346B05B6C002BFBD17B685B6843F0C0027B68BA
S11346C05A603B685B7919467868FEF7DBFF7B68C4
S11346D09B683A6892F82020134003F00103002BF2
S11346E003D179211948FBF731FE7B689A683B684E
S11346F093F821305B00134003F00203002B03D135
S11347007A211248FBF722FE7B685B6B43F4FF635C
S113471043F001037A6853637B680A4A934202D1E7
S11347201620FFF747FF3B685B6A094A13603B6842
S11347309B6A084A1360084B00221A7000BF18379E
S1134740BD4680BD00A0044090171A00687C00009C
S1134750F0020020F8020020B402002080B582B0EC
S113476000AFFDF7CBF978600E4BDA6A0D4B9B6B0B
S113477013403B600B4A3B6853633B6803F00203FE
S1134780002B01D000F010F83B6803F00103002B6C
S113479001D000F053F87868FDF7C0F900BF08377E
S11347A0BD4680BD00A0044080B500AF214B1B78FE
S11347B0012B08D0022B31D0002B34D1B2211E485A
S11347C0FBF7C4FD34E01B4B1A691A4BDB689A42B1
S11347D010D2184B9B681A78164B5B689A62154B7B
S11347E09B680133134A9360124B1B690133114ACE
S11347F013611DE00F4B5B689A6B0E4B5B6822F0F4
S113480002029A630B4B5B689A6B0A4B5B6842F03B
S113481001029A63074B02221A7009E0C421064878
S1134820FBF794FD04E0C7210348FBF78FFD00BFAD
S113483000BF80BDB4020020687C000080B500AFDA
S1134840174B1B78012B08D0022B0BD0002B20D147
S1134850D8211448FBF77AFD20E0DC211148FBF74E
S113486075FD1BE00E4B5B689A6B0D4B5B6822F089
S113487003029A630C4B00221A700C4B1B681846F7
S113488000F05AF8032000F085F9054B00221A7055
S113489004E0E7210348FBF759FD00BF00BF80BDDA
S11348A0B4020020687C0000F4020020F80200201A
S11348B080B584B000AFF860B9607A60FB689B682B
S11348C003F04003002B04D14FF480711148FBF72F
S11348D03DFD032000F03CF90F4AFB6853600E4A8B
S11348E0BB6893600C4A7B68D3600B4B00221A614F
S11348F00A4B01221A70084B01221A70064B5B689E
S11349009A6B054B5B6842F002029A6300BF103752
S1134910BD4680BD687C0000B4020020F402002083
S113492080B400AF034B00221A6000BFBD465DF89F
S1134930047B7047C802002080B584B000AF786063
S1134940FDF7DCF8F860064B1A687B681343044AE9
S11349501360F868FDF7E2F800BF1037BD4680BD6C
S1134960C802002080B584B000AF7860FDF7C6F8B7
S1134970F8607B68DA43064B1B681340044A1360F3
S1134980F868FDF7CBF800BF1037BD4680BD00BF07
S1134990C802002080B400AF034B1B681846BD4614
S11349A05DF8047B704700BFC802002080B588B062
S11349B000AF01233B7101237B710023BB600B4BD0
S11349C0FB6000233B744FF470637B610F23BB6176
S11349D001233B7701237B773B1D19460448FFF7EE
S11349E0CDF900BF2037BD4680BD00BF6067010020
S11349F000C0004080B584B002AF78600823019302
S1134A00054B00930123F32240210448FFF790FA59
S1134A1000BF0837BD4680BDCC02002000C0004066
S1134A2090B583B000AF324B1B8807EE903AF8EE96
S1134A30677A17EE900A00F03FFB27A3D3E900231F
S1134A4000F092FB03460C46184621464FF0000244
S1134A50284B00F0B3FC03460C461846214620A31D
S1134A60D3E9002300F0C8F903460C461846214652
S1134A7000F08CFD03467B60786800F01DFB1AA3F0
S1134A80D3E9002300F070FB03460C461846214688
S1134A904FF00002184B00F0B1F903460C461846DB
S1134AA0214600F073FD03463B60D7ED007AB2EE79
S1134AB0047A67EE877AFDEEE77AB8EEE77AF2EEEB
S1134AC0046AC7EE267AC7ED007A3B6818460C37AD
S1134AD0BD4690BDAFF30080D7A3703D0AF7654093
S1134AE0CDCCCCCCCC6C4740CDCCCCCCCCCCFC3FCE
S1134AF0CC0200200000F0400000404080B400AF31
S1134B00054B1B69044A23F00403136130BF00BF43
S1134B10BD465DF8047B704700ED00E080B483B0CF
S1134B2000AF00237B6007E0084A7B68002142F85D
S1134B3023107B6801337B607B68042BF4DD00BFAA
S1134B400C37BD465DF8047B704700BFD0020020DF
S1134B5080B584B000AF7860FCF7D0FFF8600B4AF2
S1134B607B68012142F82310084A7B6852F82330FD
S1134B70042B03DD48210648FBF7E8FBF868FCF743
S1134B80CDFF00BF1037BD4680BD00BFD00200205E
S1134B90887C000080B584B000AF7860FCF7AEFF7D
S1134BA0F8600B4A7B68002142F82310084A7B68AE
S1134BB052F82330002B03DA5F210648FBF7C6FBCB
S1134BC0F868FCF7ABFF00BF1037BD4680BD00BFDF
S1134BD0D0020020887C000080B582B000AFFCF7D2
S1134BE08DFF7860104B1B68002B15DC0E4B5B6847
S1134BF0002B11DC0C4B9B68002B02DDFFF77EFFC2
S1134C000AE0094BDB68002B03DD0120FDF772F994
S1134C1002E00120FDF7B6F97868FCF77FFF00BFDA
S1134C200837BD4680BD00BFD002002080B400AF6D
S1134C30044BDB6C1B0EDBB21846BD465DF8047BEF
S1134C40704700BFB081E00F80B582B000AF194B50
S1134C5001225A64FFF7EAFF0346FB71FB79002B3C
S1134C600CD1154B4AF6E8521A60144B1B68134AD0
S1134C7043F004031360104B00221A60FB79012BEC
S1134C8005D80F4B1B680E4A43F4005313600D4BB9
S1134C901B6A23F444130B4A43F4881313620A4B2C
S1134CA01B68094A43F4F843136000BF0837BD4644
S1134CB080BD00BF00000E4090310E4098310E4080
S1134CC064310E4000400E40A4310E40B0B58CB0AB
S1134CD000AF434B07F11C040FCB84E80F00414B9A
S1134CE007F108041D460FCD0FC42B682380FFF77E
S1134CF0ABFF00233B7100237B7107F11C031846B3
S1134D00FDF706FD02237B713B1D1846FDF732FAC1
S1134D1007F108031846FCF71DFC3348FCF75EFB5B
S1134D20012201210320FCF797FC05211120FCF747
S1134D3037F9002200210220FCF78EFCFEF720FE4A
S1134D40FFF728FE034603F01003002B03D11E21B6
S1134D502648FBF7FBFAFCF7D1FEF862FFF71AFED0
S1134D600346002B01D1FFF737FFF86AFCF7D6FEA4
S1134D70FFF710FE034603F00403002B01D0FEF7F7
S1134D8059FEFFF707FE034603F00103002B01D091
S1134D90FEF768FEFFF7FEFD034603F00203002B57
S1134DA001D0FEF777FEFFF7F5FD034603F0080395
S1134DB0002B01D0FEF786FEFFF7ECFD034603F05F
S1134DC01003002B01D0FEF7D5FEFFF7E3FD0346E9
S1134DD003F02003002BBED0FEF7ECFEBBE700BFC0
S1134DE0C07C0000D07C00000048E801B07C0000DA
S1134DF081F0004102E000BF83F0004330B54FEA88
S1134E0041044FEA430594EA050F08BF90EA020FF4
S1134E101FBF54EA000C55EA020C7FEA645C7FEA87
S1134E20655C00F0E2804FEA5454D4EB5555B8BFAA
S1134E306D420CDD2C4480EA020281EA030382EA1B
S1134E40000083EA010180EA020281EA0303362DAD
S1134E5088BF30BD11F0004F4FEA01314FF4801C80
S1134E604CEA113102D0404261EB410113F0004F92
S1134E704FEA03334CEA133302D0524263EB430349
S1134E8094EA050F00F0A780A4F10104D5F1200EE7
S1134E900DDB02FA0EFC22FA05F2801841F1000142
S1134EA003FA0EF2801843FA05F359410EE0A5F116
S1134EB020050EF1200E012A03FA0EFC28BF4CF047
S1134EC0020C43FA05F3C01851EBE37101F00045FD
S1134ED007D54FF0000EDCF1000C7EEB00006EEB0A
S1134EE00101B1F5801F1BD3B1F5001F0CD3490894
S1134EF05FEA30004FEA3C0C04F101044FEA4452EB
S1134F0012F5800F80F09A80BCF1004F08BF5FEA71
S1134F10500C50F1000041EB045141EA050130BD51
S1134F205FEA4C0C404141EB010111F4801FA4F1F4
S1134F300104E9D191F0000F04BF01460020B1FA49
S1134F4081F308BF2033A3F10B03B3F120020CDA81
S1134F500C3208DD02F1140CC2F10C0201FA0CF05F
S1134F6021FA02F10CE002F11402D8BFC2F1200CC4
S1134F7001FA02F120FA0CFCDCBF41EA0C0190407A
S1134F80E41AA2BF01EB0451294330BD6FEA0404C3
S1134F901F3C1CDA0C340EDC04F11404C4F12002AE
S1134FA020FA04F001FA02F340EA030021FA04F3C0
S1134FB045EA030130BDC4F10C04C4F1200220FA17
S1134FC002F001FA04F340EA0300294630BD21FA55
S1134FD004F0294630BD94F0000F83F4801306BF1B
S1134FE081F480110134013D4EE77FEA645C18BF0F
S1134FF07FEA655C29D094EA050F08BF90EA020FA6
S113500005D054EA000C04BF1946104630BD91EA9D
S1135010030F1EBF0021002030BD5FEA545C05D1A0
S11350204000494128BF41F0004130BD14F58004DF
S11350303CBF01F5801130BD01F0004545F0FE4153
S113504041F470014FF0000030BD7FEA645C1ABF88
S1135050194610467FEA655C1CBF0B46024650EABF
S1135060013406BF52EA033591EA030F41F40021EB
S113507030BD00BF90F0000F04BF0021704730B571
S11350804FF4806404F132044FF000054FF0000146
S113509050E700BF90F0000F04BF0021704730B507
S11350A04FF4806404F1320410F0004548BF4042DC
S11350B04FF000013EE700BF42004FEAE2014FEA31
S11350C031014FEA02701FBF12F07F4393F07F4F0C
S11350D081F06051704732F07F4208BF704793F00F
S11350E07F4F04BF41F40021704730B54FF4607422
S11350F001F0004521F000411CE700BF50EA010225
S113510008BF704730B54FF000050AE050EA0102CD
S113511008BF704730B511F0004502D5404261EB3D
S113512041014FF4806404F132045FEA915C3FF47E
S1135130D8AE4FF003025FEADC0C18BF03325FEA1B
S1135140DC0C18BF033202EBDC02C2F1200300FACC
S113515003FC20FA02F001FA03FE40EA0E0021FAF1
S113516002F11444BDE600BF70B54FF0FF0C4CF4DF
S1135170E06C1CEA11541DBF1CEA135594EA0C0F91
S113518095EA0C0F00F0DEF82C4481EA030621EACC
S11351904C5123EA4C5350EA013518BF52EA033507
S11351A041F4801143F4801338D0A0FB02CE4FF0B9
S11351B00005E1FB02E506F00042E0FB03E54FF0E9
S11351C00006E1FB03569CF0000F18BF4EF0010EE1
S11351D0A4F1FF04B6F5007F64F5407404D25FEADD
S11351E04E0E6D4146EB060642EAC62141EA555190
S11351F04FEAC52040EA5E504FEACE2EB4F1FD0CD2
S113520088BFBCF5E06F1ED8BEF1004F08BF5FEA4F
S1135210500E50F1000041EB045170BD06F0004601
S113522046EA010140EA020081EA0301B4EB5C04AE
S1135230C2BFD4EB0C0541EA045170BD41F48011A6
S11352404FF0000E013C00F3AB8014F1360FDEBFCB
S1135250002001F0004170BDC4F10004203C35DAA7
S11352600C341BDC04F11404C4F1200500FA05F32A
S113527020FA04F001FA05F240EA020001F00042CB
S113528021F0004110EBD37021FA04F642EB060141
S11352905EEA430E08BF20EAD37070BDC4F10C046B
S11352A0C4F1200500FA04F320FA05F001FA04F22F
S11352B040EA020001F0004110EBD37041F100011B
S11352C05EEA430E08BF20EAD37070BDC4F1200526
S11352D000FA05F24EEA020E20FA04F301FA05F28E
S11352E043EA020321FA04F001F0004121FA04F236
S11352F020EA020000EBD3705EEA430E08BF20EA06
S1135300D37070BD94F0000F0FD101F0004640003F
S113531041EB010111F4801F08BF013CF7D041EAC1
S1135320060195F0000F18BF704703F000465200C5
S113533043EB030313F4801F08BF013DF7D043EA96
S11353400603704794EA0C0F0CEA135518BF95EA4C
S11353500C0F0CD050EA410618BF52EA4306D1D1D3
S113536081EA030101F000414FF0000070BD50EAF2
S1135370410606BF1046194652EA430619D094EA7C
S11353800C0F02D150EA013613D195EA0C0F05D166
S113539052EA03361CBF104619460AD181EA0301BA
S11353A001F0004141F0FE4141F470014FF0000072
S11353B070BD41F0FE4141F4780170BD70B54FF00D
S11353C0FF0C4CF4E06C1CEA11541DBF1CEA13558D
S11353D094EA0C0F95EA0C0F00F0A7F8A4EB05046F
S11353E081EA030E52EA03354FEA013100F0888066
S11353F04FEA03334FF0805545EA131343EA12632F
S11354004FEA022245EA111545EA10654FEA0026E3
S11354100EF000419D4208BF964244F1FD0404F59C
S1135420407402D25B084FEA3202B61A65EB0305F8
S11354305B084FEA32024FF480104FF4002CB6EBB5
S1135440020E75EB030E22BFB61A754640EA0C0035
S11354505B084FEA3202B6EB020E75EB030E22BF75
S1135460B61A754640EA5C005B084FEA3202B6EBB6
S1135470020E75EB030E22BFB61A754640EA9C0075
S11354805B084FEA3202B6EB020E75EB030E22BF45
S1135490B61A754640EADC0055EA060E18D04FEA03
S11354A0051545EA16754FEA06164FEAC30343EAA3
S11354B052734FEAC2025FEA1C1CC0D111F4801F70
S11354C00BD141EA00014FF000004FF0004CB6E769
S11354D011F4801F04BF01430020B4F1FD0C88BF08
S11354E0BCF5E06F3FF6AFAEB5EB030C04BFB6EB13
S11354F0020C5FEA500C50F1000041EB045170BD06
S11355000EF0004E4EEA113114EB5C04C2BFD4EB32
S11355100C0541EA045170BD41F480114FF0000EB6
S1135520013C90E645EA060E8DE60CEA135594EA32
S11355300C0F08BF95EA0C0F3FF43BAF94EA0C0F35
S11355400AD150EA01347FF434AF95EA0C0F7FF4AA
S113555025AF104619462CE795EA0C0F06D152EAFE
S113556003353FF4FDAE1046194622E750EA4106E2
S113557018BF52EA43067FF4C5AE50EA41047FF4F3
S11355800DAF52EA43057FF4EBAE12E74FEA410256
S1135590B2F1E04324BFB3F5001CDCF1FE5C0DD98D
S11355A001F0004C4FEAC0024CEA5070B2F1004FD7
S11355B040EB830008BF20F00100704711F0804FDA
S11355C021D113F13872BCBF01F00040704741F49F
S11355D080114FEA5252C2F11802C2F1200C10FAA3
S11355E00CF320FA02F018BF40F001004FEAC12387
S11355F04FEAD32303FA0CFC40EA0C0023FA02F32B
S11356004FEA4303CCE77FEA625307D150EA013300
S11356101EBF4FF0FE4040F44000704701F00040D0
S113562040F0FE4040F40000704700BF08B5074B4F
S1135630044613B10021AFF30080054B1868836A58
S113564003B19847204602F0DBF800BF00000000D9
S1135650E47C000070B50D4E0D4CA41BA410002575
S1135660A54209D10B4E0C4C02F092F9A41BA410D4
S11356700025A54205D170BD56F82530984701355F
S1135680EEE756F8253098470135F2E70C02002082
S11356900C0200200C0200201002002010B5431E52
S11356A00A44914200D110BD11F8014B03F8014F97
S11356B0F7E702440346934200D1704703F8011B05
S11356C0F9E72DE9F04788B0002B149F109EDDE91F
S11356D0121A1D4627F02007BBBF03F100431D46E5
S11356E000232D231446B8BF1446462F0B7004D054
S11356F0452F00D10136022300E0032307AA0492B8
S113570006AACDE902A2CDE9003622462B4600F0D6
S1135710EBFC472F804602D1119BDB0726D5462F91
S113572008EB060911D198F80030302B0AD1002279
S113573000232046294602F0BBF818B9C6F1010639
S1135740CAF80060DAF800309944002200232046A9
S1135750294602F0ADF838B93022079B4B4505D2F3
S1135760591C07911A70F8E7CDF81C90079B159AFD
S1135770A3EB08034046136008B0BDE8F087F7B513
S113578000290446BABF49422D232B23092904F8D2
S1135790022B437020DD0DF107031F460A2691FBFF
S11357A0F6F506FB15113031092D03F8011C03F140
S11357B0FF32294609DC3031023B02F8011CBB42AE
S11357C0224604D3101A03B0F0BD1346E7E713F8DA
S11357D0012B04F8012BF2E7302319448370021DD6
S11357E0C170EFE72DE9F04F91B00C46DDF8688009
S11357F016461F46054601F035FA03680893184615
S113580000F0DEFB00230E93D8F800300990073334
S113581023F0070303F1080294F818A0D4F800B0A9
S1135820C8F80020D3E90023C4E91223D4E912897B
S113583029F000430B93CDF828804FF0FF32A94B99
S1135840DDE90A0102F066F870BB4FF0FF32A54BA8
S1135850DDE90A0102F040F830BB00220023404693
S1135860494602F02FF810B12D2384F843309E4AA4
S11358709E4BBAF1470F8CBF904698460323236191
S11358802BF0040323604FF00009009733460FAA5E
S11358902146284600F0ECF9013040F090804FF0AA
S11358A0FF3011B0BDE8F08F42464B4640464946B2
S11358B002F030F810B18E4A8E4BDAE76368591C57
S11358C04BF480620EA90DA840D1062363600DF14C
S11358D03303CDE901234FF0000C63682260CDE966
S11358E0030A009342464B46CDE9051C2846FFF7C0
S11358F0E8FE0AF0DF03472B804609D10D9BD81C34
S113590002DB6268934247DDAAF1020A5FFA8AFA6F
S1135910BAF1650F0D9924D80139524604F15000AB
S11359200D91FFF72CFF0E9A1318012A814623616B
S113593002DC2268D10701D5013323619DF833309D
S1135940002BA2D02D2384F843309EE7BAF1670FD1
S113595000F07881BAF1470FB9D1002BB7D10123F8
S1135960B4E7BAF1660F19D1002963680CDD21612F
S113597013B92268D20702D501330B4423610D9B6E
S1135980A3654FF00009D9E713B92268D00701D500
S11359900233F3E70123F1E74FF0670ADDE90D3243
S11359A0934205DB22682361D107E8D50133E5E79B
S11359B0002BD4BFC3F1020301231344DEE72368A1
S11359C05A0507D42369424631462846B847013070
S11359D02BD164E7BAF1650F40F2DD800022002389
S11359E0D4E9120101F064FF002833D00123424AB4
S11359F031462846B84701303FF451AFDDE90D2365
S1135A009A4202DB2368D8070FD5DDE90823314623
S1135A102846B84701303FF442AF4FF0000804F184
S1135A201A090E9B013B434509DC23689B0700F1DF
S1135A300481E0680F9B9842B8BF184631E7012300
S1135A404A4631462846B84701303FF428AF08F1AA
S1135A500108E6E70D9B002B2BDC0123264A314687
S1135A602846B84701303FF41AAF0D9B23B90E9B6B
S1135A7013B92368D907D8D5DDE908233146284668
S1135A80B84701303FF40BAF4FF0000904F11A0A94
S1135A900D9B5B424B4501DC0E9B94E70123524670
S1135AA031462846B84701303FF4F9AE09F10109FF
S1135AB0EEE70E9AA36D9A42A8BF1A46002A9146B1
S1135AC007DD1346314642462846B84701303FF4C5
S1135AD0E6AE04F11A034FF0000B29EAE9790A93C0
S1135AE016E000BFFFFFEF7FEC7C0000E87C0000C5
S1135AF0F47C0000F07C0000F87C000001230A9A8A
S1135B0031462846B84701303FF4C9AE0BF1010BCA
S1135B10D4F858A0AAEB09035B45EFDCDDE90D23BB
S1135B209A42D04415DB2368DA0712D40E9B0D99F0
S1135B30A3EB0A02A3EB010A9245A8BF9246BAF16D
S1135B40000F0EDC4FF000082AEAEA7A04F11A0981
S1135B5019E0DDE9082331462846B8470130E5D18C
S1135B609DE65346424631462846B8470130E9D1BE
S1135B7095E601234A4631462846B84701303FF4AA
S1135B808EAE08F10108DDE90D239B1AA3EB0A038D
S1135B904345EEDC49E70E9A012A01DCDB073AD5DE
S1135BA00123424631462846B84701303FF477AED8
S1135BB0DDE9082331462846B847013008F10108D9
S1135BC03FF46DAE0E9B002203F1FF3AD4E91201BB
S1135BD0002301F06DFEC8B95346424631462846BB
S1135BE0B84701300ED15AE60123524631462846C1
S1135BF0B84701303FF453AE08F101080E9B013B56
S1135C004345F1DC4B4604F15002DDE64FF0000859
S1135C1004F11A0AF2E70123DFE701234A46314679
S1135C202846B84701303FF43AAE08F10108E3686A
S1135C300F9A9B1A4345F0DCFBE64FF0000804F191
S1135C401909F4E7002B3FF48AAE4FF0000CCDE9BC
S1135C50051C0DF133012260CDE9030ACDE90121D0
S1135C60009342464B462846FFF72BFD804645E607
S1135C702DE9F04791461F468A680B69DDF82080BC
S1135C809342B8BF1346C9F8003091F84320064642
S1135C900C4612B10133C9F800302368990642BF9B
S1135CA0D9F800300233C9F80030256815F006052C
S1135CB007D104F1190AE368D9F800209B1AAB4212
S1135CC028DC94F843302268003318BF012392067D
S1135CD02DD404F1430239463046C047013020D068
S1135CE02368E568D9F8002003F00603042B08BFF5
